{"contracts/DurianTrust.sol":{"DurianTrust":{"abi":[{"inputs":[],"stateMutability":"nonpayable","type":"constructor"},{"anonymous":false,"inputs":[{"indexed":true,"internalType":"string","name":"id","type":"string"},{"indexed":false,"internalType":"string","name":"farmVi","type":"string"},{"indexed":false,"internalType":"enum DurianTrust.RiskLevel","name":"riskLevel","type":"uint8"},{"indexed":true,"internalType":"uint256","name":"tokenId","type":"uint256"}],"name":"BatchRegistered","type":"event"},{"anonymous":false,"inputs":[{"indexed":true,"internalType":"string","name":"id","type":"string"},{"indexed":false,"internalType":"string","name":"stageVi","type":"string"}],"name":"TimelineEventAdded","type":"event"},{"inputs":[],"name":"PPM_SCALE","outputs":[{"internalType":"uint256","name":"","type":"uint256"}],"stateMutability":"view","type":"function"},{"inputs":[{"internalType":"string","name":"id","type":"string"},{"internalType":"string","name":"stageVi","type":"string"},{"internalType":"string","name":"stageEn","type":"string"},{"internalType":"string","name":"locationVi","type":"string"},{"internalType":"string","name":"locationEn","type":"string"},{"internalType":"string","name":"date","type":"string"},{"internalType":"uint8","name":"status","type":"uint8"}],"name":"addTimelineEvent","outputs":[],"stateMutability":"nonpayable","type":"function"},{"inputs":[{"internalType":"string","name":"id","type":"string"}],"name":"getBatch","outputs":[{"internalType":"string","name":"farmVi","type":"string"},{"internalType":"string","name":"farmEn","type":"string"},{"internalType":"string","name":"provinceVi","type":"string"},{"internalType":"string","name":"provinceEn","type":"string"},{"internalType":"string","name":"harvestDate","type":"string"},{"internalType":"uint256","name":"cadmiumPpm","type":"uint256"},{"internalType":"uint256","name":"thresholdPpm","type":"uint256"},{"internalType":"string","name":"aiResultVi","type":"string"},{"internalType":"string","name":"aiResultEn","type":"string"},{"internalType":"uint256","name":"confidence","type":"uint256"},{"internalType":"enum DurianTrust.RiskLevel","name":"riskLevel","type":"uint8"},{"internalType":"string","name":"riskCauseVi","type":"string"},{"internalType":"string","name":"riskCauseEn","type":"string"}],"stateMutability":"view","type":"function"},{"inputs":[{"internalType":"uint256","name":"tokenId","type":"uint256"}],"name":"getBatchIdByTokenId","outputs":[{"internalType":"string","name":"","type":"string"}],"stateMutability":"view","type":"function"},{"inputs":[],"name":"getBatchIds","outputs":[{"internalType":"string[]","name":"","type":"string[]"}],"stateMutability":"view","type":"function"},{"inputs":[{"internalType":"uint256","name":"tokenId","type":"uint256"}],"name":"getRegistrant","outputs":[{"internalType":"address","name":"","type":"address"}],"stateMutability":"view","type":"function"},{"inputs":[{"internalType":"string","name":"id","type":"string"}],"name":"getTimeline","outputs":[{"components":[{"internalType":"string","name":"stageVi","type":"string"},{"internalType":"string","name":"stageEn","type":"string"},{"internalType":"string","name":"locationVi","type":"string"},{"internalType":"string","name":"locationEn","type":"string"},{"internalType":"string","name":"date","type":"string"},{"internalType":"uint8","name":"status","type":"uint8"}],"internalType":"struct DurianTrust.TimelineEvent[]","name":"","type":"tuple[]"}],"stateMutability":"view","type":"function"},{"inputs":[{"internalType":"string","name":"batchId","type":"string"}],"name":"getTokenIdByBatchId","outputs":[{"internalType":"uint256","name":"","type":"uint256"}],"stateMutability":"view","type":"function"},{"inputs":[],"name":"owner","outputs":[{"internalType":"address","name":"","type":"address"}],"stateMutability":"view","type":"function"},{"inputs":[{"internalType":"string","name":"id","type":"string"},{"internalType":"string","name":"farmVi","type":"string"},{"internalType":"string","name":"farmEn","type":"string"},{"internalType":"string","name":"provinceVi","type":"string"},{"internalType":"string","name":"provinceEn","type":"string"},{"internalType":"string","name":"harvestDate","type":"string"},{"internalType":"uint256","name":"cadmiumPpm","type":"uint256"},{"internalType":"uint256","name":"thresholdPpm","type":"uint256"},{"internalType":"string","name":"aiResultVi","type":"string"},{"internalType":"string","name":"aiResultEn","type":"string"},{"internalType":"uint256","name":"confidence","type":"uint256"},{"internalType":"enum DurianTrust.RiskLevel","name":"riskLevel","type":"uint8"},{"internalType":"string","name":"riskCauseVi","type":"string"},{"internalType":"string","name":"riskCauseEn","type":"string"}],"name":"registerBatch","outputs":[],"stateMutability":"nonpayable","type":"function"}],"evm":{"bytecode":{"linkReferences":{},"object":"6080806040523461002e57612261600155600080546001600160a01b031916331790556112d190816100348239f35b600080fdfe6080604052600436101561001257600080fd5b60003560e01c80632c23b26e14610dc5578063462190b114610cdc5780635c30b61b14610ad457806364cc51ff14610ab75780637ed2253c146108a95780638da5cb5b14610880578063a08550a21461081f578063a9357452146107d1578063ba43a4451461033f5763f9ca42741461008a57600080fd5b3461033a57602036600319011261033a5760043567ffffffffffffffff811161033a5760206100c0610102923690600401610ee0565b604051906100f160ff600e8351948681818701976100df81838b610f37565b8101600281520301902001541661114e565b604051938492839251928391610f37565b8101600281520301902060ff600e6040519261011d84610ea1565b61012681611191565b845261013460018201611191565b602085015261014560028201611191565b604085015261015660038201611191565b606085015261016760048201611191565b608085015261017860058201611191565b60a0850152600681015460c0850152600781015460e085015261019d60088201611191565b6101008501526101af60098201611191565b610120850152600a8101546101408501526101d483600b830154166101608601610fd8565b6101e0600c8201611191565b6101808501526101f2600d8201611191565b6101a085015201541615156101c08201526020810151604082015191606081015190608081015160a08201519060c083015160e08401519061010085015190610120860151926101408701519561016088015195600387101561032457610180890151986101a00151996040519c8d9c8d6101a081526101a00161027591610f5a565b8d810360208f015261028691610f5a565b8c810360408e015261029791610f5a565b8b810360608d01526102a891610f5a565b8a810360808c01526102b991610f5a565b9160a08a015260c089015287810360e08901526102d591610f5a565b8681036101008801526102e791610f5a565b9161012086015261014085016102fc91610f7f565b83810361016085015261030e91610f5a565b82810361018084015261032091610f5a565b0390f35b634e487b7160e01b600052602160045260246000fd5b600080fd5b3461033a576101c036600319011261033a5767ffffffffffffffff60043581811161033a57610372903690600401610ee0565b9060243581811161033a5761038b903690600401610ee0565b9060443581811161033a576103a4903690600401610ee0565b9060643581811161033a576103bd903690600401610ee0565b9060843581811161033a576103d6903690600401610ee0565b60a43582811161033a576103ee903690600401610ee0565b6101043583811161033a57610407903690600401610ee0565b906101243584811161033a57610421903690600401610ee0565b92600361016435101561033a576101843585811161033a57610447903690600401610ee0565b946101a43590811161033a57610461903690600401610ee0565b9561047760018060a01b03600054163314610f8c565b60ff600e61049460208d8160405193828580945193849201610f37565b8101600281520301902001541661079557604051976104b289610ea1565b8a89528960208a015260408901526060880152608087015260a086015260c43560c086015260e43560e086015261010085015261012084015261014435610140840152610506610164356101608501610fd8565b6101808301526101a082015260016101c0820152604051602081855161052f8183858a01610f37565b8101600281520301902061054482518261101e565b61055560208301516001830161101e565b61056660408301516002830161101e565b61057760608301516003830161101e565b61058860808301516004830161101e565b61059960a08301516005830161101e565b60c0820151600682015560e082015160078201556105bf6101008301516008830161101e565b6105d16101208301516009830161101e565b610140820151600a820155600b810161016083015191600383101561032457600e6101c09160ff9384199585878354169116179055610618610180870151600c830161101e565b61062a6101a0870151600d830161101e565b0193015115159183541691161790556001549182600052600560205261065481604060002061101e565b82604051602081845161066a8183858901610f37565b81016006815203019020558260005260076020526040600020336bffffffffffffffffffffffff60a01b825416179055600154600019811461077f5760010160015560045490600160401b821015610769576001820180600455821015610753576107298161072461073e937f472b6f7acd103a560dca6edf16cf1604a8e7fae4c9483c8f4f13f74405ca002c9560046000527f8a35acfbc15ff81a39ae7d344fd709f28e8600b4aa8c65c6b64bfe7fe36bd19b0161101e565b61112e565b92604051918291604083526040830190610f5a565b61074e6020830161016435610f7f565b0390a3005b634e487b7160e01b600052603260045260246000fd5b634e487b7160e01b600052604160045260246000fd5b634e487b7160e01b600052601160045260246000fd5b60405162461bcd60e51b8152602060048201526014602482015273426174636820616c72656164792065786973747360601b6044820152606490fd5b3461033a57602036600319011261033a576020600435806000526007825260018060a01b03906108098260406000205416151561124f565b6000526007825260406000205416604051908152f35b3461033a57602036600319011261033a5760043580600052600560205261085461084d604060002054610fe4565b151561124f565b600052600560205261032061086c6040600020611191565b604051918291602083526020830190610f5a565b3461033a57600036600319011261033a576000546040516001600160a01b039091168152602090f35b3461033a5760208060031936011261033a5760043567ffffffffffffffff811161033a576108db903690600401610ee0565b9060405191805191808201926108f2818686610f37565b840191610913600293848152600e878560ff998a940301902001541661114e565b61092560405194859251928391610f37565b8301928181600395868152030190209182549061094182611237565b9461094f6040519687610ebe565b82865283860191829560005284600020916000935b858510610a3a57505050505050604051928184019082855251809152604084019160408260051b86010193926000965b8388106109a15786860387f35b90919293948380600192603f198a8203018652885190610a1d610a0a6109f76109e56109d5865160c0808852870190610f5a565b8787015186820389880152610f5a565b60408601518582036040870152610f5a565b6060808601519085830390860152610f5a565b6080808501519084830390850152610f5a565b918660a08092015116910152970193019701969093929193610994565b60068760019260409b999b51610a4f81610e85565b610a5888611191565b8152610a65858901611191565b83820152610a74878901611191565b6040820152610a84868901611191565b6060820152610a9560048901611191565b60808201528d60058901541660a0820152815201940194019392979597610964565b3461033a57600036600319011261033a5760206040516127108152f35b3461033a5760e036600319011261033a5767ffffffffffffffff60043581811161033a57610b06903690600401610ee0565b9060243581811161033a57610b1f903690600401610ee0565b60443582811161033a57610b37903690600401610ee0565b9160643581811161033a57610b50903690600401610ee0565b9360843582811161033a57610b69903690600401610ee0565b9160a43590811161033a57610b82903690600401610ee0565b60c4359060ff821680920361033a57600e96610ba960018060a01b03600054163314610f8c565b610bdd6040518551610bcc60ff60209c848e8096818d01966100df81838a610f37565b604051809381928951928391610f37565b8101600381520301902060405190610bf482610e85565b87825289820198895260408201928352606082019687526080820193845260a08201948552805493600160401b851015610769576001850180835585101561075357610ca6610cc298610c9c600596610c928f9e7f89b67f9499d4ebcce6e17c7e8fa6444cca5a12771a786407b9c287d09b2003779f60ff9b6006610c8892610cb09b60005260002091020199518a61101e565b516001890161101e565b516002870161101e565b516003850161101e565b516004830161101e565b0191511660ff1982541617905561112e565b92610cd7604051928284938452830190610f5a565b0390a2005b3461033a57600036600319011261033a57600454610cf981611237565b90610d076040519283610ebe565b808252602090818301908160046000527f8a35acfbc15ff81a39ae7d344fd709f28e8600b4aa8c65c6b64bfe7fe36bd19b6000915b838310610da35750505050604051918083019381845251809452604083019360408160051b85010192916000955b828710610d775785850386f35b909192938280610d93600193603f198a82030186528851610f5a565b9601920196019592919092610d6a565b6001868192610db4859a999a611191565b815201920192019190959495610d3c565b3461033a5760208060031936011261033a5760043567ffffffffffffffff811161033a57610df7903690600401610ee0565b60405190805191838181840194610e0f818388610f37565b810160068152030190205415610e4957610e36918391604051938492839251928391610f37565b8101600681520301902054604051908152f35b60405162461bcd60e51b815260048101849052601460248201527310985d18da081b9bdd081c9959da5cdd195c995960621b6044820152606490fd5b60c0810190811067ffffffffffffffff82111761076957604052565b6101e0810190811067ffffffffffffffff82111761076957604052565b90601f8019910116810190811067ffffffffffffffff82111761076957604052565b81601f8201121561033a5780359067ffffffffffffffff82116107695760405192610f15601f8401601f191660200185610ebe565b8284526020838301011161033a57816000926020809301838601378301015290565b60005b838110610f4a5750506000910152565b8181015183820152602001610f3a565b90602091610f7381518092818552858086019101610f37565b601f01601f1916010190565b9060038210156103245752565b15610f9357565b60405162461bcd60e51b815260206004820152601860248201527f4f6e6c79206f776e65722063616e2063616c6c207468697300000000000000006044820152606490fd5b60038210156103245752565b90600182811c92168015611014575b6020831014610ffe57565b634e487b7160e01b600052602260045260246000fd5b91607f1691610ff3565b919091825167ffffffffffffffff81116107695761103c8254610fe4565b601f81116110e6575b50602080601f8311600114611082575081929394600092611077575b50508160011b916000199060031b1c1916179055565b015190503880611061565b90601f198316958460005282600020926000905b8882106110ce575050836001959697106110b5575b505050811b019055565b015160001960f88460031b161c191690553880806110ab565b80600185968294968601518155019501930190611096565b600083815260208120601f840160051c81019260208510611124575b601f0160051c01915b828110611119575050611045565b81815560010161110b565b9092508290611102565b61114690602060405192828480945193849201610f37565b810103902090565b1561115557565b60405162461bcd60e51b815260206004820152601460248201527310985d18da08191bd95cc81b9bdd08195e1a5cdd60621b6044820152606490fd5b90604051918260008254926111a584610fe4565b90818452600194858116908160001461121457506001146111d1575b50506111cf92500383610ebe565b565b9093915060005260209081600020936000915b8183106111fc5750506111cf935082010138806111c1565b855488840185015294850194879450918301916111e4565b9150506111cf94506020925060ff191682840152151560051b82010138806111c1565b67ffffffffffffffff81116107695760051b60200190565b1561125657565b60405162461bcd60e51b815260206004820152601760248201527f546f6b656e204944206e6f7420726567697374657265640000000000000000006044820152606490fdfea2646970667358221220c20be37771dda6d31dd81f86f645c355ded56684e9ca66a7622e75a54e84701964736f6c63430008140033","opcodes":"PUSH1 0x80 DUP1 PUSH1 0x40 MSTORE CALLVALUE PUSH2 0x2E JUMPI PUSH2 0x2261 PUSH1 0x1 SSTORE PUSH1 0x0 DUP1 SLOAD PUSH1 0x1 PUSH1 0x1 PUSH1 0xA0 SHL SUB NOT AND CALLER OR SWAP1 SSTORE PUSH2 0x12D1 SWAP1 DUP2 PUSH2 0x34 DUP3 CODECOPY RETURN JUMPDEST PUSH1 0x0 DUP1 REVERT INVALID PUSH1 0x80 PUSH1 0x40 MSTORE PUSH1 0x4 CALLDATASIZE LT ISZERO PUSH2 0x12 JUMPI PUSH1 0x0 DUP1 REVERT JUMPDEST PUSH1 0x0 CALLDATALOAD PUSH1 0xE0 SHR DUP1 PUSH4 0x2C23B26E EQ PUSH2 0xDC5 JUMPI DUP1 PUSH4 0x462190B1 EQ PUSH2 0xCDC JUMPI DUP1 PUSH4 0x5C30B61B EQ PUSH2 0xAD4 JUMPI DUP1 PUSH4 0x64CC51FF EQ PUSH2 0xAB7 JUMPI DUP1 PUSH4 0x7ED2253C EQ PUSH2 0x8A9 JUMPI DUP1 PUSH4 0x8DA5CB5B EQ PUSH2 0x880 JUMPI DUP1 PUSH4 0xA08550A2 EQ PUSH2 0x81F JUMPI DUP1 PUSH4 0xA9357452 EQ PUSH2 0x7D1 JUMPI DUP1 PUSH4 0xBA43A445 EQ PUSH2 0x33F JUMPI PUSH4 0xF9CA4274 EQ PUSH2 0x8A JUMPI PUSH1 0x0 DUP1 REVERT JUMPDEST CALLVALUE PUSH2 0x33A JUMPI PUSH1 0x20 CALLDATASIZE PUSH1 0x3 NOT ADD SLT PUSH2 0x33A JUMPI PUSH1 0x4 CALLDATALOAD PUSH8 0xFFFFFFFFFFFFFFFF DUP2 GT PUSH2 0x33A JUMPI PUSH1 0x20 PUSH2 0xC0 PUSH2 0x102 SWAP3 CALLDATASIZE SWAP1 PUSH1 0x4 ADD PUSH2 0xEE0 JUMP JUMPDEST PUSH1 0x40 MLOAD SWAP1 PUSH2 0xF1 PUSH1 0xFF PUSH1 0xE DUP4 MLOAD SWAP5 DUP7 DUP2 DUP2 DUP8 ADD SWAP8 PUSH2 0xDF DUP2 DUP4 DUP12 PUSH2 0xF37 JUMP JUMPDEST DUP2 ADD PUSH1 0x2 DUP2 MSTORE SUB ADD SWAP1 KECCAK256 ADD SLOAD AND PUSH2 0x114E JUMP JUMPDEST PUSH1 0x40 MLOAD SWAP4 DUP5 SWAP3 DUP4 SWAP3 MLOAD SWAP3 DUP4 SWAP2 PUSH2 0xF37 JUMP JUMPDEST DUP2 ADD PUSH1 0x2 DUP2 MSTORE SUB ADD SWAP1 KECCAK256 PUSH1 0xFF PUSH1 0xE PUSH1 0x40 MLOAD SWAP3 PUSH2 0x11D DUP5 PUSH2 0xEA1 JUMP JUMPDEST PUSH2 0x126 DUP2 PUSH2 0x1191 JUMP JUMPDEST DUP5 MSTORE PUSH2 0x134 PUSH1 0x1 DUP3 ADD PUSH2 0x1191 JUMP JUMPDEST PUSH1 0x20 DUP6 ADD MSTORE PUSH2 0x145 PUSH1 0x2 DUP3 ADD PUSH2 0x1191 JUMP JUMPDEST PUSH1 0x40 DUP6 ADD MSTORE PUSH2 0x156 PUSH1 0x3 DUP3 ADD PUSH2 0x1191 JUMP JUMPDEST PUSH1 0x60 DUP6 ADD MSTORE PUSH2 0x167 PUSH1 0x4 DUP3 ADD PUSH2 0x1191 JUMP JUMPDEST PUSH1 0x80 DUP6 ADD MSTORE PUSH2 0x178 PUSH1 0x5 DUP3 ADD PUSH2 0x1191 JUMP JUMPDEST PUSH1 0xA0 DUP6 ADD MSTORE PUSH1 0x6 DUP2 ADD SLOAD PUSH1 0xC0 DUP6 ADD MSTORE PUSH1 0x7 DUP2 ADD SLOAD PUSH1 0xE0 DUP6 ADD MSTORE PUSH2 0x19D PUSH1 0x8 DUP3 ADD PUSH2 0x1191 JUMP JUMPDEST PUSH2 0x100 DUP6 ADD MSTORE PUSH2 0x1AF PUSH1 0x9 DUP3 ADD PUSH2 0x1191 JUMP JUMPDEST PUSH2 0x120 DUP6 ADD MSTORE PUSH1 0xA DUP2 ADD SLOAD PUSH2 0x140 DUP6 ADD MSTORE PUSH2 0x1D4 DUP4 PUSH1 0xB DUP4 ADD SLOAD AND PUSH2 0x160 DUP7 ADD PUSH2 0xFD8 JUMP JUMPDEST PUSH2 0x1E0 PUSH1 0xC DUP3 ADD PUSH2 0x1191 JUMP JUMPDEST PUSH2 0x180 DUP6 ADD MSTORE PUSH2 0x1F2 PUSH1 0xD DUP3 ADD PUSH2 0x1191 JUMP JUMPDEST PUSH2 0x1A0 DUP6 ADD MSTORE ADD SLOAD AND ISZERO ISZERO PUSH2 0x1C0 DUP3 ADD MSTORE PUSH1 0x20 DUP2 ADD MLOAD PUSH1 0x40 DUP3 ADD MLOAD SWAP2 PUSH1 0x60 DUP2 ADD MLOAD SWAP1 PUSH1 0x80 DUP2 ADD MLOAD PUSH1 0xA0 DUP3 ADD MLOAD SWAP1 PUSH1 0xC0 DUP4 ADD MLOAD PUSH1 0xE0 DUP5 ADD MLOAD SWAP1 PUSH2 0x100 DUP6 ADD MLOAD SWAP1 PUSH2 0x120 DUP7 ADD MLOAD SWAP3 PUSH2 0x140 DUP8 ADD MLOAD SWAP6 PUSH2 0x160 DUP9 ADD MLOAD SWAP6 PUSH1 0x3 DUP8 LT ISZERO PUSH2 0x324 JUMPI PUSH2 0x180 DUP10 ADD MLOAD SWAP9 PUSH2 0x1A0 ADD MLOAD SWAP10 PUSH1 0x40 MLOAD SWAP13 DUP14 SWAP13 DUP14 PUSH2 0x1A0 DUP2 MSTORE PUSH2 0x1A0 ADD PUSH2 0x275 SWAP2 PUSH2 0xF5A JUMP JUMPDEST DUP14 DUP2 SUB PUSH1 0x20 DUP16 ADD MSTORE PUSH2 0x286 SWAP2 PUSH2 0xF5A JUMP JUMPDEST DUP13 DUP2 SUB PUSH1 0x40 DUP15 ADD MSTORE PUSH2 0x297 SWAP2 PUSH2 0xF5A JUMP JUMPDEST DUP12 DUP2 SUB PUSH1 0x60 DUP14 ADD MSTORE PUSH2 0x2A8 SWAP2 PUSH2 0xF5A JUMP JUMPDEST DUP11 DUP2 SUB PUSH1 0x80 DUP13 ADD MSTORE PUSH2 0x2B9 SWAP2 PUSH2 0xF5A JUMP JUMPDEST SWAP2 PUSH1 0xA0 DUP11 ADD MSTORE PUSH1 0xC0 DUP10 ADD MSTORE DUP8 DUP2 SUB PUSH1 0xE0 DUP10 ADD MSTORE PUSH2 0x2D5 SWAP2 PUSH2 0xF5A JUMP JUMPDEST DUP7 DUP2 SUB PUSH2 0x100 DUP9 ADD MSTORE PUSH2 0x2E7 SWAP2 PUSH2 0xF5A JUMP JUMPDEST SWAP2 PUSH2 0x120 DUP7 ADD MSTORE PUSH2 0x140 DUP6 ADD PUSH2 0x2FC SWAP2 PUSH2 0xF7F JUMP JUMPDEST DUP4 DUP2 SUB PUSH2 0x160 DUP6 ADD MSTORE PUSH2 0x30E SWAP2 PUSH2 0xF5A JUMP JUMPDEST DUP3 DUP2 SUB PUSH2 0x180 DUP5 ADD MSTORE PUSH2 0x320 SWAP2 PUSH2 0xF5A JUMP JUMPDEST SUB SWAP1 RETURN JUMPDEST PUSH4 0x4E487B71 PUSH1 0xE0 SHL PUSH1 0x0 MSTORE PUSH1 0x21 PUSH1 0x4 MSTORE PUSH1 0x24 PUSH1 0x0 REVERT JUMPDEST PUSH1 0x0 DUP1 REVERT JUMPDEST CALLVALUE PUSH2 0x33A JUMPI PUSH2 0x1C0 CALLDATASIZE PUSH1 0x3 NOT ADD SLT PUSH2 0x33A JUMPI PUSH8 0xFFFFFFFFFFFFFFFF PUSH1 0x4 CALLDATALOAD DUP2 DUP2 GT PUSH2 0x33A JUMPI PUSH2 0x372 SWAP1 CALLDATASIZE SWAP1 PUSH1 0x4 ADD PUSH2 0xEE0 JUMP JUMPDEST SWAP1 PUSH1 0x24 CALLDATALOAD DUP2 DUP2 GT PUSH2 0x33A JUMPI PUSH2 0x38B SWAP1 CALLDATASIZE SWAP1 PUSH1 0x4 ADD PUSH2 0xEE0 JUMP JUMPDEST SWAP1 PUSH1 0x44 CALLDATALOAD DUP2 DUP2 GT PUSH2 0x33A JUMPI PUSH2 0x3A4 SWAP1 CALLDATASIZE SWAP1 PUSH1 0x4 ADD PUSH2 0xEE0 JUMP JUMPDEST SWAP1 PUSH1 0x64 CALLDATALOAD DUP2 DUP2 GT PUSH2 0x33A JUMPI PUSH2 0x3BD SWAP1 CALLDATASIZE SWAP1 PUSH1 0x4 ADD PUSH2 0xEE0 JUMP JUMPDEST SWAP1 PUSH1 0x84 CALLDATALOAD DUP2 DUP2 GT PUSH2 0x33A JUMPI PUSH2 0x3D6 SWAP1 CALLDATASIZE SWAP1 PUSH1 0x4 ADD PUSH2 0xEE0 JUMP JUMPDEST PUSH1 0xA4 CALLDATALOAD DUP3 DUP2 GT PUSH2 0x33A JUMPI PUSH2 0x3EE SWAP1 CALLDATASIZE SWAP1 PUSH1 0x4 ADD PUSH2 0xEE0 JUMP JUMPDEST PUSH2 0x104 CALLDATALOAD DUP4 DUP2 GT PUSH2 0x33A JUMPI PUSH2 0x407 SWAP1 CALLDATASIZE SWAP1 PUSH1 0x4 ADD PUSH2 0xEE0 JUMP JUMPDEST SWAP1 PUSH2 0x124 CALLDATALOAD DUP5 DUP2 GT PUSH2 0x33A JUMPI PUSH2 0x421 SWAP1 CALLDATASIZE SWAP1 PUSH1 0x4 ADD PUSH2 0xEE0 JUMP JUMPDEST SWAP3 PUSH1 0x3 PUSH2 0x164 CALLDATALOAD LT ISZERO PUSH2 0x33A JUMPI PUSH2 0x184 CALLDATALOAD DUP6 DUP2 GT PUSH2 0x33A JUMPI PUSH2 0x447 SWAP1 CALLDATASIZE SWAP1 PUSH1 0x4 ADD PUSH2 0xEE0 JUMP JUMPDEST SWAP5 PUSH2 0x1A4 CALLDATALOAD SWAP1 DUP2 GT PUSH2 0x33A JUMPI PUSH2 0x461 SWAP1 CALLDATASIZE SWAP1 PUSH1 0x4 ADD PUSH2 0xEE0 JUMP JUMPDEST SWAP6 PUSH2 0x477 PUSH1 0x1 DUP1 PUSH1 0xA0 SHL SUB PUSH1 0x0 SLOAD AND CALLER EQ PUSH2 0xF8C JUMP JUMPDEST PUSH1 0xFF PUSH1 0xE PUSH2 0x494 PUSH1 0x20 DUP14 DUP2 PUSH1 0x40 MLOAD SWAP4 DUP3 DUP6 DUP1 SWAP5 MLOAD SWAP4 DUP5 SWAP3 ADD PUSH2 0xF37 JUMP JUMPDEST DUP2 ADD PUSH1 0x2 DUP2 MSTORE SUB ADD SWAP1 KECCAK256 ADD SLOAD AND PUSH2 0x795 JUMPI PUSH1 0x40 MLOAD SWAP8 PUSH2 0x4B2 DUP10 PUSH2 0xEA1 JUMP JUMPDEST DUP11 DUP10 MSTORE DUP10 PUSH1 0x20 DUP11 ADD MSTORE PUSH1 0x40 DUP10 ADD MSTORE PUSH1 0x60 DUP9 ADD MSTORE PUSH1 0x80 DUP8 ADD MSTORE PUSH1 0xA0 DUP7 ADD MSTORE PUSH1 0xC4 CALLDATALOAD PUSH1 0xC0 DUP7 ADD MSTORE PUSH1 0xE4 CALLDATALOAD PUSH1 0xE0 DUP7 ADD MSTORE PUSH2 0x100 DUP6 ADD MSTORE PUSH2 0x120 DUP5 ADD MSTORE PUSH2 0x144 CALLDATALOAD PUSH2 0x140 DUP5 ADD MSTORE PUSH2 0x506 PUSH2 0x164 CALLDATALOAD PUSH2 0x160 DUP6 ADD PUSH2 0xFD8 JUMP JUMPDEST PUSH2 0x180 DUP4 ADD MSTORE PUSH2 0x1A0 DUP3 ADD MSTORE PUSH1 0x1 PUSH2 0x1C0 DUP3 ADD MSTORE PUSH1 0x40 MLOAD PUSH1 0x20 DUP2 DUP6 MLOAD PUSH2 0x52F DUP2 DUP4 DUP6 DUP11 ADD PUSH2 0xF37 JUMP JUMPDEST DUP2 ADD PUSH1 0x2 DUP2 MSTORE SUB ADD SWAP1 KECCAK256 PUSH2 0x544 DUP3 MLOAD DUP3 PUSH2 0x101E JUMP JUMPDEST PUSH2 0x555 PUSH1 0x20 DUP4 ADD MLOAD PUSH1 0x1 DUP4 ADD PUSH2 0x101E JUMP JUMPDEST PUSH2 0x566 PUSH1 0x40 DUP4 ADD MLOAD PUSH1 0x2 DUP4 ADD PUSH2 0x101E JUMP JUMPDEST PUSH2 0x577 PUSH1 0x60 DUP4 ADD MLOAD PUSH1 0x3 DUP4 ADD PUSH2 0x101E JUMP JUMPDEST PUSH2 0x588 PUSH1 0x80 DUP4 ADD MLOAD PUSH1 0x4 DUP4 ADD PUSH2 0x101E JUMP JUMPDEST PUSH2 0x599 PUSH1 0xA0 DUP4 ADD MLOAD PUSH1 0x5 DUP4 ADD PUSH2 0x101E JUMP JUMPDEST PUSH1 0xC0 DUP3 ADD MLOAD PUSH1 0x6 DUP3 ADD SSTORE PUSH1 0xE0 DUP3 ADD MLOAD PUSH1 0x7 DUP3 ADD SSTORE PUSH2 0x5BF PUSH2 0x100 DUP4 ADD MLOAD PUSH1 0x8 DUP4 ADD PUSH2 0x101E JUMP JUMPDEST PUSH2 0x5D1 PUSH2 0x120 DUP4 ADD MLOAD PUSH1 0x9 DUP4 ADD PUSH2 0x101E JUMP JUMPDEST PUSH2 0x140 DUP3 ADD MLOAD PUSH1 0xA DUP3 ADD SSTORE PUSH1 0xB DUP2 ADD PUSH2 0x160 DUP4 ADD MLOAD SWAP2 PUSH1 0x3 DUP4 LT ISZERO PUSH2 0x324 JUMPI PUSH1 0xE PUSH2 0x1C0 SWAP2 PUSH1 0xFF SWAP4 DUP5 NOT SWAP6 DUP6 DUP8 DUP4 SLOAD AND SWAP2 AND OR SWAP1 SSTORE PUSH2 0x618 PUSH2 0x180 DUP8 ADD MLOAD PUSH1 0xC DUP4 ADD PUSH2 0x101E JUMP JUMPDEST PUSH2 0x62A PUSH2 0x1A0 DUP8 ADD MLOAD PUSH1 0xD DUP4 ADD PUSH2 0x101E JUMP JUMPDEST ADD SWAP4 ADD MLOAD ISZERO ISZERO SWAP2 DUP4 SLOAD AND SWAP2 AND OR SWAP1 SSTORE PUSH1 0x1 SLOAD SWAP2 DUP3 PUSH1 0x0 MSTORE PUSH1 0x5 PUSH1 0x20 MSTORE PUSH2 0x654 DUP2 PUSH1 0x40 PUSH1 0x0 KECCAK256 PUSH2 0x101E JUMP JUMPDEST DUP3 PUSH1 0x40 MLOAD PUSH1 0x20 DUP2 DUP5 MLOAD PUSH2 0x66A DUP2 DUP4 DUP6 DUP10 ADD PUSH2 0xF37 JUMP JUMPDEST DUP2 ADD PUSH1 0x6 DUP2 MSTORE SUB ADD SWAP1 KECCAK256 SSTORE DUP3 PUSH1 0x0 MSTORE PUSH1 0x7 PUSH1 0x20 MSTORE PUSH1 0x40 PUSH1 0x0 KECCAK256 CALLER PUSH12 0xFFFFFFFFFFFFFFFFFFFFFFFF PUSH1 0xA0 SHL DUP3 SLOAD AND OR SWAP1 SSTORE PUSH1 0x1 SLOAD PUSH1 0x0 NOT DUP2 EQ PUSH2 0x77F JUMPI PUSH1 0x1 ADD PUSH1 0x1 SSTORE PUSH1 0x4 SLOAD SWAP1 PUSH1 0x1 PUSH1 0x40 SHL DUP3 LT ISZERO PUSH2 0x769 JUMPI PUSH1 0x1 DUP3 ADD DUP1 PUSH1 0x4 SSTORE DUP3 LT ISZERO PUSH2 0x753 JUMPI PUSH2 0x729 DUP2 PUSH2 0x724 PUSH2 0x73E SWAP4 PUSH32 0x472B6F7ACD103A560DCA6EDF16CF1604A8E7FAE4C9483C8F4F13F74405CA002C SWAP6 PUSH1 0x4 PUSH1 0x0 MSTORE PUSH32 0x8A35ACFBC15FF81A39AE7D344FD709F28E8600B4AA8C65C6B64BFE7FE36BD19B ADD PUSH2 0x101E JUMP JUMPDEST PUSH2 0x112E JUMP JUMPDEST SWAP3 PUSH1 0x40 MLOAD SWAP2 DUP3 SWAP2 PUSH1 0x40 DUP4 MSTORE PUSH1 0x40 DUP4 ADD SWAP1 PUSH2 0xF5A JUMP JUMPDEST PUSH2 0x74E PUSH1 0x20 DUP4 ADD PUSH2 0x164 CALLDATALOAD PUSH2 0xF7F JUMP JUMPDEST SUB SWAP1 LOG3 STOP JUMPDEST PUSH4 0x4E487B71 PUSH1 0xE0 SHL PUSH1 0x0 MSTORE PUSH1 0x32 PUSH1 0x4 MSTORE PUSH1 0x24 PUSH1 0x0 REVERT JUMPDEST PUSH4 0x4E487B71 PUSH1 0xE0 SHL PUSH1 0x0 MSTORE PUSH1 0x41 PUSH1 0x4 MSTORE PUSH1 0x24 PUSH1 0x0 REVERT JUMPDEST PUSH4 0x4E487B71 PUSH1 0xE0 SHL PUSH1 0x0 MSTORE PUSH1 0x11 PUSH1 0x4 MSTORE PUSH1 0x24 PUSH1 0x0 REVERT JUMPDEST PUSH1 0x40 MLOAD PUSH3 0x461BCD PUSH1 0xE5 SHL DUP2 MSTORE PUSH1 0x20 PUSH1 0x4 DUP3 ADD MSTORE PUSH1 0x14 PUSH1 0x24 DUP3 ADD MSTORE PUSH20 0x426174636820616C726561647920657869737473 PUSH1 0x60 SHL PUSH1 0x44 DUP3 ADD MSTORE PUSH1 0x64 SWAP1 REVERT JUMPDEST CALLVALUE PUSH2 0x33A JUMPI PUSH1 0x20 CALLDATASIZE PUSH1 0x3 NOT ADD SLT PUSH2 0x33A JUMPI PUSH1 0x20 PUSH1 0x4 CALLDATALOAD DUP1 PUSH1 0x0 MSTORE PUSH1 0x7 DUP3 MSTORE PUSH1 0x1 DUP1 PUSH1 0xA0 SHL SUB SWAP1 PUSH2 0x809 DUP3 PUSH1 0x40 PUSH1 0x0 KECCAK256 SLOAD AND ISZERO ISZERO PUSH2 0x124F JUMP JUMPDEST PUSH1 0x0 MSTORE PUSH1 0x7 DUP3 MSTORE PUSH1 0x40 PUSH1 0x0 KECCAK256 SLOAD AND PUSH1 0x40 MLOAD SWAP1 DUP2 MSTORE RETURN JUMPDEST CALLVALUE PUSH2 0x33A JUMPI PUSH1 0x20 CALLDATASIZE PUSH1 0x3 NOT ADD SLT PUSH2 0x33A JUMPI PUSH1 0x4 CALLDATALOAD DUP1 PUSH1 0x0 MSTORE PUSH1 0x5 PUSH1 0x20 MSTORE PUSH2 0x854 PUSH2 0x84D PUSH1 0x40 PUSH1 0x0 KECCAK256 SLOAD PUSH2 0xFE4 JUMP JUMPDEST ISZERO ISZERO PUSH2 0x124F JUMP JUMPDEST PUSH1 0x0 MSTORE PUSH1 0x5 PUSH1 0x20 MSTORE PUSH2 0x320 PUSH2 0x86C PUSH1 0x40 PUSH1 0x0 KECCAK256 PUSH2 0x1191 JUMP JUMPDEST PUSH1 0x40 MLOAD SWAP2 DUP3 SWAP2 PUSH1 0x20 DUP4 MSTORE PUSH1 0x20 DUP4 ADD SWAP1 PUSH2 0xF5A JUMP JUMPDEST CALLVALUE PUSH2 0x33A JUMPI PUSH1 0x0 CALLDATASIZE PUSH1 0x3 NOT ADD SLT PUSH2 0x33A JUMPI PUSH1 0x0 SLOAD PUSH1 0x40 MLOAD PUSH1 0x1 PUSH1 0x1 PUSH1 0xA0 SHL SUB SWAP1 SWAP2 AND DUP2 MSTORE PUSH1 0x20 SWAP1 RETURN JUMPDEST CALLVALUE PUSH2 0x33A JUMPI PUSH1 0x20 DUP1 PUSH1 0x3 NOT CALLDATASIZE ADD SLT PUSH2 0x33A JUMPI PUSH1 0x4 CALLDATALOAD PUSH8 0xFFFFFFFFFFFFFFFF DUP2 GT PUSH2 0x33A JUMPI PUSH2 0x8DB SWAP1 CALLDATASIZE SWAP1 PUSH1 0x4 ADD PUSH2 0xEE0 JUMP JUMPDEST SWAP1 PUSH1 0x40 MLOAD SWAP2 DUP1 MLOAD SWAP2 DUP1 DUP3 ADD SWAP3 PUSH2 0x8F2 DUP2 DUP7 DUP7 PUSH2 0xF37 JUMP JUMPDEST DUP5 ADD SWAP2 PUSH2 0x913 PUSH1 0x2 SWAP4 DUP5 DUP2 MSTORE PUSH1 0xE DUP8 DUP6 PUSH1 0xFF SWAP10 DUP11 SWAP5 SUB ADD SWAP1 KECCAK256 ADD SLOAD AND PUSH2 0x114E JUMP JUMPDEST PUSH2 0x925 PUSH1 0x40 MLOAD SWAP5 DUP6 SWAP3 MLOAD SWAP3 DUP4 SWAP2 PUSH2 0xF37 JUMP JUMPDEST DUP4 ADD SWAP3 DUP2 DUP2 PUSH1 0x3 SWAP6 DUP7 DUP2 MSTORE SUB ADD SWAP1 KECCAK256 SWAP2 DUP3 SLOAD SWAP1 PUSH2 0x941 DUP3 PUSH2 0x1237 JUMP JUMPDEST SWAP5 PUSH2 0x94F PUSH1 0x40 MLOAD SWAP7 DUP8 PUSH2 0xEBE JUMP JUMPDEST DUP3 DUP7 MSTORE DUP4 DUP7 ADD SWAP2 DUP3 SWAP6 PUSH1 0x0 MSTORE DUP5 PUSH1 0x0 KECCAK256 SWAP2 PUSH1 0x0 SWAP4 JUMPDEST DUP6 DUP6 LT PUSH2 0xA3A JUMPI POP POP POP POP POP POP PUSH1 0x40 MLOAD SWAP3 DUP2 DUP5 ADD SWAP1 DUP3 DUP6 MSTORE MLOAD DUP1 SWAP2 MSTORE PUSH1 0x40 DUP5 ADD SWAP2 PUSH1 0x40 DUP3 PUSH1 0x5 SHL DUP7 ADD ADD SWAP4 SWAP3 PUSH1 0x0 SWAP7 JUMPDEST DUP4 DUP9 LT PUSH2 0x9A1 JUMPI DUP7 DUP7 SUB DUP8 RETURN JUMPDEST SWAP1 SWAP2 SWAP3 SWAP4 SWAP5 DUP4 DUP1 PUSH1 0x1 SWAP3 PUSH1 0x3F NOT DUP11 DUP3 SUB ADD DUP7 MSTORE DUP9 MLOAD SWAP1 PUSH2 0xA1D PUSH2 0xA0A PUSH2 0x9F7 PUSH2 0x9E5 PUSH2 0x9D5 DUP7 MLOAD PUSH1 0xC0 DUP1 DUP9 MSTORE DUP8 ADD SWAP1 PUSH2 0xF5A JUMP JUMPDEST DUP8 DUP8 ADD MLOAD DUP7 DUP3 SUB DUP10 DUP9 ADD MSTORE PUSH2 0xF5A JUMP JUMPDEST PUSH1 0x40 DUP7 ADD MLOAD DUP6 DUP3 SUB PUSH1 0x40 DUP8 ADD MSTORE PUSH2 0xF5A JUMP JUMPDEST PUSH1 0x60 DUP1 DUP7 ADD MLOAD SWAP1 DUP6 DUP4 SUB SWAP1 DUP7 ADD MSTORE PUSH2 0xF5A JUMP JUMPDEST PUSH1 0x80 DUP1 DUP6 ADD MLOAD SWAP1 DUP5 DUP4 SUB SWAP1 DUP6 ADD MSTORE PUSH2 0xF5A JUMP JUMPDEST SWAP2 DUP7 PUSH1 0xA0 DUP1 SWAP3 ADD MLOAD AND SWAP2 ADD MSTORE SWAP8 ADD SWAP4 ADD SWAP8 ADD SWAP7 SWAP1 SWAP4 SWAP3 SWAP2 SWAP4 PUSH2 0x994 JUMP JUMPDEST PUSH1 0x6 DUP8 PUSH1 0x1 SWAP3 PUSH1 0x40 SWAP12 SWAP10 SWAP12 MLOAD PUSH2 0xA4F DUP2 PUSH2 0xE85 JUMP JUMPDEST PUSH2 0xA58 DUP9 PUSH2 0x1191 JUMP JUMPDEST DUP2 MSTORE PUSH2 0xA65 DUP6 DUP10 ADD PUSH2 0x1191 JUMP JUMPDEST DUP4 DUP3 ADD MSTORE PUSH2 0xA74 DUP8 DUP10 ADD PUSH2 0x1191 JUMP JUMPDEST PUSH1 0x40 DUP3 ADD MSTORE PUSH2 0xA84 DUP7 DUP10 ADD PUSH2 0x1191 JUMP JUMPDEST PUSH1 0x60 DUP3 ADD MSTORE PUSH2 0xA95 PUSH1 0x4 DUP10 ADD PUSH2 0x1191 JUMP JUMPDEST PUSH1 0x80 DUP3 ADD MSTORE DUP14 PUSH1 0x5 DUP10 ADD SLOAD AND PUSH1 0xA0 DUP3 ADD MSTORE DUP2 MSTORE ADD SWAP5 ADD SWAP5 ADD SWAP4 SWAP3 SWAP8 SWAP6 SWAP8 PUSH2 0x964 JUMP JUMPDEST CALLVALUE PUSH2 0x33A JUMPI PUSH1 0x0 CALLDATASIZE PUSH1 0x3 NOT ADD SLT PUSH2 0x33A JUMPI PUSH1 0x20 PUSH1 0x40 MLOAD PUSH2 0x2710 DUP2 MSTORE RETURN JUMPDEST CALLVALUE PUSH2 0x33A JUMPI PUSH1 0xE0 CALLDATASIZE PUSH1 0x3 NOT ADD SLT PUSH2 0x33A JUMPI PUSH8 0xFFFFFFFFFFFFFFFF PUSH1 0x4 CALLDATALOAD DUP2 DUP2 GT PUSH2 0x33A JUMPI PUSH2 0xB06 SWAP1 CALLDATASIZE SWAP1 PUSH1 0x4 ADD PUSH2 0xEE0 JUMP JUMPDEST SWAP1 PUSH1 0x24 CALLDATALOAD DUP2 DUP2 GT PUSH2 0x33A JUMPI PUSH2 0xB1F SWAP1 CALLDATASIZE SWAP1 PUSH1 0x4 ADD PUSH2 0xEE0 JUMP JUMPDEST PUSH1 0x44 CALLDATALOAD DUP3 DUP2 GT PUSH2 0x33A JUMPI PUSH2 0xB37 SWAP1 CALLDATASIZE SWAP1 PUSH1 0x4 ADD PUSH2 0xEE0 JUMP JUMPDEST SWAP2 PUSH1 0x64 CALLDATALOAD DUP2 DUP2 GT PUSH2 0x33A JUMPI PUSH2 0xB50 SWAP1 CALLDATASIZE SWAP1 PUSH1 0x4 ADD PUSH2 0xEE0 JUMP JUMPDEST SWAP4 PUSH1 0x84 CALLDATALOAD DUP3 DUP2 GT PUSH2 0x33A JUMPI PUSH2 0xB69 SWAP1 CALLDATASIZE SWAP1 PUSH1 0x4 ADD PUSH2 0xEE0 JUMP JUMPDEST SWAP2 PUSH1 0xA4 CALLDATALOAD SWAP1 DUP2 GT PUSH2 0x33A JUMPI PUSH2 0xB82 SWAP1 CALLDATASIZE SWAP1 PUSH1 0x4 ADD PUSH2 0xEE0 JUMP JUMPDEST PUSH1 0xC4 CALLDATALOAD SWAP1 PUSH1 0xFF DUP3 AND DUP1 SWAP3 SUB PUSH2 0x33A JUMPI PUSH1 0xE SWAP7 PUSH2 0xBA9 PUSH1 0x1 DUP1 PUSH1 0xA0 SHL SUB PUSH1 0x0 SLOAD AND CALLER EQ PUSH2 0xF8C JUMP JUMPDEST PUSH2 0xBDD PUSH1 0x40 MLOAD DUP6 MLOAD PUSH2 0xBCC PUSH1 0xFF PUSH1 0x20 SWAP13 DUP5 DUP15 DUP1 SWAP7 DUP2 DUP14 ADD SWAP7 PUSH2 0xDF DUP2 DUP4 DUP11 PUSH2 0xF37 JUMP JUMPDEST PUSH1 0x40 MLOAD DUP1 SWAP4 DUP2 SWAP3 DUP10 MLOAD SWAP3 DUP4 SWAP2 PUSH2 0xF37 JUMP JUMPDEST DUP2 ADD PUSH1 0x3 DUP2 MSTORE SUB ADD SWAP1 KECCAK256 PUSH1 0x40 MLOAD SWAP1 PUSH2 0xBF4 DUP3 PUSH2 0xE85 JUMP JUMPDEST DUP8 DUP3 MSTORE DUP10 DUP3 ADD SWAP9 DUP10 MSTORE PUSH1 0x40 DUP3 ADD SWAP3 DUP4 MSTORE PUSH1 0x60 DUP3 ADD SWAP7 DUP8 MSTORE PUSH1 0x80 DUP3 ADD SWAP4 DUP5 MSTORE PUSH1 0xA0 DUP3 ADD SWAP5 DUP6 MSTORE DUP1 SLOAD SWAP4 PUSH1 0x1 PUSH1 0x40 SHL DUP6 LT ISZERO PUSH2 0x769 JUMPI PUSH1 0x1 DUP6 ADD DUP1 DUP4 SSTORE DUP6 LT ISZERO PUSH2 0x753 JUMPI PUSH2 0xCA6 PUSH2 0xCC2 SWAP9 PUSH2 0xC9C PUSH1 0x5 SWAP7 PUSH2 0xC92 DUP16 SWAP15 PUSH32 0x89B67F9499D4EBCCE6E17C7E8FA6444CCA5A12771A786407B9C287D09B200377 SWAP16 PUSH1 0xFF SWAP12 PUSH1 0x6 PUSH2 0xC88 SWAP3 PUSH2 0xCB0 SWAP12 PUSH1 0x0 MSTORE PUSH1 0x0 KECCAK256 SWAP2 MUL ADD SWAP10 MLOAD DUP11 PUSH2 0x101E JUMP JUMPDEST MLOAD PUSH1 0x1 DUP10 ADD PUSH2 0x101E JUMP JUMPDEST MLOAD PUSH1 0x2 DUP8 ADD PUSH2 0x101E JUMP JUMPDEST MLOAD PUSH1 0x3 DUP6 ADD PUSH2 0x101E JUMP JUMPDEST MLOAD PUSH1 0x4 DUP4 ADD PUSH2 0x101E JUMP JUMPDEST ADD SWAP2 MLOAD AND PUSH1 0xFF NOT DUP3 SLOAD AND OR SWAP1 SSTORE PUSH2 0x112E JUMP JUMPDEST SWAP3 PUSH2 0xCD7 PUSH1 0x40 MLOAD SWAP3 DUP3 DUP5 SWAP4 DUP5 MSTORE DUP4 ADD SWAP1 PUSH2 0xF5A JUMP JUMPDEST SUB SWAP1 LOG2 STOP JUMPDEST CALLVALUE PUSH2 0x33A JUMPI PUSH1 0x0 CALLDATASIZE PUSH1 0x3 NOT ADD SLT PUSH2 0x33A JUMPI PUSH1 0x4 SLOAD PUSH2 0xCF9 DUP2 PUSH2 0x1237 JUMP JUMPDEST SWAP1 PUSH2 0xD07 PUSH1 0x40 MLOAD SWAP3 DUP4 PUSH2 0xEBE JUMP JUMPDEST DUP1 DUP3 MSTORE PUSH1 0x20 SWAP1 DUP2 DUP4 ADD SWAP1 DUP2 PUSH1 0x4 PUSH1 0x0 MSTORE PUSH32 0x8A35ACFBC15FF81A39AE7D344FD709F28E8600B4AA8C65C6B64BFE7FE36BD19B PUSH1 0x0 SWAP2 JUMPDEST DUP4 DUP4 LT PUSH2 0xDA3 JUMPI POP POP POP POP PUSH1 0x40 MLOAD SWAP2 DUP1 DUP4 ADD SWAP4 DUP2 DUP5 MSTORE MLOAD DUP1 SWAP5 MSTORE PUSH1 0x40 DUP4 ADD SWAP4 PUSH1 0x40 DUP2 PUSH1 0x5 SHL DUP6 ADD ADD SWAP3 SWAP2 PUSH1 0x0 SWAP6 JUMPDEST DUP3 DUP8 LT PUSH2 0xD77 JUMPI DUP6 DUP6 SUB DUP7 RETURN JUMPDEST SWAP1 SWAP2 SWAP3 SWAP4 DUP3 DUP1 PUSH2 0xD93 PUSH1 0x1 SWAP4 PUSH1 0x3F NOT DUP11 DUP3 SUB ADD DUP7 MSTORE DUP9 MLOAD PUSH2 0xF5A JUMP JUMPDEST SWAP7 ADD SWAP3 ADD SWAP7 ADD SWAP6 SWAP3 SWAP2 SWAP1 SWAP3 PUSH2 0xD6A JUMP JUMPDEST PUSH1 0x1 DUP7 DUP2 SWAP3 PUSH2 0xDB4 DUP6 SWAP11 SWAP10 SWAP11 PUSH2 0x1191 JUMP JUMPDEST DUP2 MSTORE ADD SWAP3 ADD SWAP3 ADD SWAP2 SWAP1 SWAP6 SWAP5 SWAP6 PUSH2 0xD3C JUMP JUMPDEST CALLVALUE PUSH2 0x33A JUMPI PUSH1 0x20 DUP1 PUSH1 0x3 NOT CALLDATASIZE ADD SLT PUSH2 0x33A JUMPI PUSH1 0x4 CALLDATALOAD PUSH8 0xFFFFFFFFFFFFFFFF DUP2 GT PUSH2 0x33A JUMPI PUSH2 0xDF7 SWAP1 CALLDATASIZE SWAP1 PUSH1 0x4 ADD PUSH2 0xEE0 JUMP JUMPDEST PUSH1 0x40 MLOAD SWAP1 DUP1 MLOAD SWAP2 DUP4 DUP2 DUP2 DUP5 ADD SWAP5 PUSH2 0xE0F DUP2 DUP4 DUP9 PUSH2 0xF37 JUMP JUMPDEST DUP2 ADD PUSH1 0x6 DUP2 MSTORE SUB ADD SWAP1 KECCAK256 SLOAD ISZERO PUSH2 0xE49 JUMPI PUSH2 0xE36 SWAP2 DUP4 SWAP2 PUSH1 0x40 MLOAD SWAP4 DUP5 SWAP3 DUP4 SWAP3 MLOAD SWAP3 DUP4 SWAP2 PUSH2 0xF37 JUMP JUMPDEST DUP2 ADD PUSH1 0x6 DUP2 MSTORE SUB ADD SWAP1 KECCAK256 SLOAD PUSH1 0x40 MLOAD SWAP1 DUP2 MSTORE RETURN JUMPDEST PUSH1 0x40 MLOAD PUSH3 0x461BCD PUSH1 0xE5 SHL DUP2 MSTORE PUSH1 0x4 DUP2 ADD DUP5 SWAP1 MSTORE PUSH1 0x14 PUSH1 0x24 DUP3 ADD MSTORE PUSH20 0x10985D18DA081B9BDD081C9959DA5CDD195C9959 PUSH1 0x62 SHL PUSH1 0x44 DUP3 ADD MSTORE PUSH1 0x64 SWAP1 REVERT JUMPDEST PUSH1 0xC0 DUP2 ADD SWAP1 DUP2 LT PUSH8 0xFFFFFFFFFFFFFFFF DUP3 GT OR PUSH2 0x769 JUMPI PUSH1 0x40 MSTORE JUMP JUMPDEST PUSH2 0x1E0 DUP2 ADD SWAP1 DUP2 LT PUSH8 0xFFFFFFFFFFFFFFFF DUP3 GT OR PUSH2 0x769 JUMPI PUSH1 0x40 MSTORE JUMP JUMPDEST SWAP1 PUSH1 0x1F DUP1 NOT SWAP2 ADD AND DUP2 ADD SWAP1 DUP2 LT PUSH8 0xFFFFFFFFFFFFFFFF DUP3 GT OR PUSH2 0x769 JUMPI PUSH1 0x40 MSTORE JUMP JUMPDEST DUP2 PUSH1 0x1F DUP3 ADD SLT ISZERO PUSH2 0x33A JUMPI DUP1 CALLDATALOAD SWAP1 PUSH8 0xFFFFFFFFFFFFFFFF DUP3 GT PUSH2 0x769 JUMPI PUSH1 0x40 MLOAD SWAP3 PUSH2 0xF15 PUSH1 0x1F DUP5 ADD PUSH1 0x1F NOT AND PUSH1 0x20 ADD DUP6 PUSH2 0xEBE JUMP JUMPDEST DUP3 DUP5 MSTORE PUSH1 0x20 DUP4 DUP4 ADD ADD GT PUSH2 0x33A JUMPI DUP2 PUSH1 0x0 SWAP3 PUSH1 0x20 DUP1 SWAP4 ADD DUP4 DUP7 ADD CALLDATACOPY DUP4 ADD ADD MSTORE SWAP1 JUMP JUMPDEST PUSH1 0x0 JUMPDEST DUP4 DUP2 LT PUSH2 0xF4A JUMPI POP POP PUSH1 0x0 SWAP2 ADD MSTORE JUMP JUMPDEST DUP2 DUP2 ADD MLOAD DUP4 DUP3 ADD MSTORE PUSH1 0x20 ADD PUSH2 0xF3A JUMP JUMPDEST SWAP1 PUSH1 0x20 SWAP2 PUSH2 0xF73 DUP2 MLOAD DUP1 SWAP3 DUP2 DUP6 MSTORE DUP6 DUP1 DUP7 ADD SWAP2 ADD PUSH2 0xF37 JUMP JUMPDEST PUSH1 0x1F ADD PUSH1 0x1F NOT AND ADD ADD SWAP1 JUMP JUMPDEST SWAP1 PUSH1 0x3 DUP3 LT ISZERO PUSH2 0x324 JUMPI MSTORE JUMP JUMPDEST ISZERO PUSH2 0xF93 JUMPI JUMP JUMPDEST PUSH1 0x40 MLOAD PUSH3 0x461BCD PUSH1 0xE5 SHL DUP2 MSTORE PUSH1 0x20 PUSH1 0x4 DUP3 ADD MSTORE PUSH1 0x18 PUSH1 0x24 DUP3 ADD MSTORE PUSH32 0x4F6E6C79206F776E65722063616E2063616C6C20746869730000000000000000 PUSH1 0x44 DUP3 ADD MSTORE PUSH1 0x64 SWAP1 REVERT JUMPDEST PUSH1 0x3 DUP3 LT ISZERO PUSH2 0x324 JUMPI MSTORE JUMP JUMPDEST SWAP1 PUSH1 0x1 DUP3 DUP2 SHR SWAP3 AND DUP1 ISZERO PUSH2 0x1014 JUMPI JUMPDEST PUSH1 0x20 DUP4 LT EQ PUSH2 0xFFE JUMPI JUMP JUMPDEST PUSH4 0x4E487B71 PUSH1 0xE0 SHL PUSH1 0x0 MSTORE PUSH1 0x22 PUSH1 0x4 MSTORE PUSH1 0x24 PUSH1 0x0 REVERT JUMPDEST SWAP2 PUSH1 0x7F AND SWAP2 PUSH2 0xFF3 JUMP JUMPDEST SWAP2 SWAP1 SWAP2 DUP3 MLOAD PUSH8 0xFFFFFFFFFFFFFFFF DUP2 GT PUSH2 0x769 JUMPI PUSH2 0x103C DUP3 SLOAD PUSH2 0xFE4 JUMP JUMPDEST PUSH1 0x1F DUP2 GT PUSH2 0x10E6 JUMPI JUMPDEST POP PUSH1 0x20 DUP1 PUSH1 0x1F DUP4 GT PUSH1 0x1 EQ PUSH2 0x1082 JUMPI POP DUP2 SWAP3 SWAP4 SWAP5 PUSH1 0x0 SWAP3 PUSH2 0x1077 JUMPI JUMPDEST POP POP DUP2 PUSH1 0x1 SHL SWAP2 PUSH1 0x0 NOT SWAP1 PUSH1 0x3 SHL SHR NOT AND OR SWAP1 SSTORE JUMP JUMPDEST ADD MLOAD SWAP1 POP CODESIZE DUP1 PUSH2 0x1061 JUMP JUMPDEST SWAP1 PUSH1 0x1F NOT DUP4 AND SWAP6 DUP5 PUSH1 0x0 MSTORE DUP3 PUSH1 0x0 KECCAK256 SWAP3 PUSH1 0x0 SWAP1 JUMPDEST DUP9 DUP3 LT PUSH2 0x10CE JUMPI POP POP DUP4 PUSH1 0x1 SWAP6 SWAP7 SWAP8 LT PUSH2 0x10B5 JUMPI JUMPDEST POP POP POP DUP2 SHL ADD SWAP1 SSTORE JUMP JUMPDEST ADD MLOAD PUSH1 0x0 NOT PUSH1 0xF8 DUP5 PUSH1 0x3 SHL AND SHR NOT AND SWAP1 SSTORE CODESIZE DUP1 DUP1 PUSH2 0x10AB JUMP JUMPDEST DUP1 PUSH1 0x1 DUP6 SWAP7 DUP3 SWAP5 SWAP7 DUP7 ADD MLOAD DUP2 SSTORE ADD SWAP6 ADD SWAP4 ADD SWAP1 PUSH2 0x1096 JUMP JUMPDEST PUSH1 0x0 DUP4 DUP2 MSTORE PUSH1 0x20 DUP2 KECCAK256 PUSH1 0x1F DUP5 ADD PUSH1 0x5 SHR DUP2 ADD SWAP3 PUSH1 0x20 DUP6 LT PUSH2 0x1124 JUMPI JUMPDEST PUSH1 0x1F ADD PUSH1 0x5 SHR ADD SWAP2 JUMPDEST DUP3 DUP2 LT PUSH2 0x1119 JUMPI POP POP PUSH2 0x1045 JUMP JUMPDEST DUP2 DUP2 SSTORE PUSH1 0x1 ADD PUSH2 0x110B JUMP JUMPDEST SWAP1 SWAP3 POP DUP3 SWAP1 PUSH2 0x1102 JUMP JUMPDEST PUSH2 0x1146 SWAP1 PUSH1 0x20 PUSH1 0x40 MLOAD SWAP3 DUP3 DUP5 DUP1 SWAP5 MLOAD SWAP4 DUP5 SWAP3 ADD PUSH2 0xF37 JUMP JUMPDEST DUP2 ADD SUB SWAP1 KECCAK256 SWAP1 JUMP JUMPDEST ISZERO PUSH2 0x1155 JUMPI JUMP JUMPDEST PUSH1 0x40 MLOAD PUSH3 0x461BCD PUSH1 0xE5 SHL DUP2 MSTORE PUSH1 0x20 PUSH1 0x4 DUP3 ADD MSTORE PUSH1 0x14 PUSH1 0x24 DUP3 ADD MSTORE PUSH20 0x10985D18DA08191BD95CC81B9BDD08195E1A5CDD PUSH1 0x62 SHL PUSH1 0x44 DUP3 ADD MSTORE PUSH1 0x64 SWAP1 REVERT JUMPDEST SWAP1 PUSH1 0x40 MLOAD SWAP2 DUP3 PUSH1 0x0 DUP3 SLOAD SWAP3 PUSH2 0x11A5 DUP5 PUSH2 0xFE4 JUMP JUMPDEST SWAP1 DUP2 DUP5 MSTORE PUSH1 0x1 SWAP5 DUP6 DUP2 AND SWAP1 DUP2 PUSH1 0x0 EQ PUSH2 0x1214 JUMPI POP PUSH1 0x1 EQ PUSH2 0x11D1 JUMPI JUMPDEST POP POP PUSH2 0x11CF SWAP3 POP SUB DUP4 PUSH2 0xEBE JUMP JUMPDEST JUMP JUMPDEST SWAP1 SWAP4 SWAP2 POP PUSH1 0x0 MSTORE PUSH1 0x20 SWAP1 DUP2 PUSH1 0x0 KECCAK256 SWAP4 PUSH1 0x0 SWAP2 JUMPDEST DUP2 DUP4 LT PUSH2 0x11FC JUMPI POP POP PUSH2 0x11CF SWAP4 POP DUP3 ADD ADD CODESIZE DUP1 PUSH2 0x11C1 JUMP JUMPDEST DUP6 SLOAD DUP9 DUP5 ADD DUP6 ADD MSTORE SWAP5 DUP6 ADD SWAP5 DUP8 SWAP5 POP SWAP2 DUP4 ADD SWAP2 PUSH2 0x11E4 JUMP JUMPDEST SWAP2 POP POP PUSH2 0x11CF SWAP5 POP PUSH1 0x20 SWAP3 POP PUSH1 0xFF NOT AND DUP3 DUP5 ADD MSTORE ISZERO ISZERO PUSH1 0x5 SHL DUP3 ADD ADD CODESIZE DUP1 PUSH2 0x11C1 JUMP JUMPDEST PUSH8 0xFFFFFFFFFFFFFFFF DUP2 GT PUSH2 0x769 JUMPI PUSH1 0x5 SHL PUSH1 0x20 ADD SWAP1 JUMP JUMPDEST ISZERO PUSH2 0x1256 JUMPI JUMP JUMPDEST PUSH1 0x40 MLOAD PUSH3 0x461BCD PUSH1 0xE5 SHL DUP2 MSTORE PUSH1 0x20 PUSH1 0x4 DUP3 ADD MSTORE PUSH1 0x17 PUSH1 0x24 DUP3 ADD MSTORE PUSH32 0x546F6B656E204944206E6F742072656769737465726564000000000000000000 PUSH1 0x44 DUP3 ADD MSTORE PUSH1 0x64 SWAP1 REVERT INVALID LOG2 PUSH5 0x6970667358 0x22 SLT KECCAK256 0xC2 SIGNEXTEND 0xE3 PUSH24 0x71DDA6D31DD81F86F645C355DED56684E9CA66A7622E75A5 0x4E DUP5 PUSH17 0x1964736F6C634300081400330000000000 "},"methodIdentifiers":{"PPM_SCALE()":"64cc51ff","addTimelineEvent(string,string,string,string,string,string,uint8)":"5c30b61b","getBatch(string)":"f9ca4274","getBatchIdByTokenId(uint256)":"a08550a2","getBatchIds()":"462190b1","getRegistrant(uint256)":"a9357452","getTimeline(string)":"7ed2253c","getTokenIdByBatchId(string)":"2c23b26e","owner()":"8da5cb5b","registerBatch(string,string,string,string,string,string,uint256,uint256,string,string,uint256,uint8,string,string)":"ba43a445"}}}}}