{"contracts/DurianTrust.sol":{"DurianTrust":{"abi":[{"inputs":[],"stateMutability":"nonpayable","type":"constructor"},{"anonymous":false,"inputs":[{"indexed":true,"internalType":"string","name":"id","type":"string"},{"indexed":false,"internalType":"string","name":"farmVi","type":"string"},{"indexed":false,"internalType":"enum DurianTrust.RiskLevel","name":"riskLevel","type":"uint8"},{"indexed":true,"internalType":"uint256","name":"tokenId","type":"uint256"}],"name":"BatchRegistered","type":"event"},{"anonymous":false,"inputs":[{"indexed":true,"internalType":"address","name":"account","type":"address"}],"name":"FarmerAdded","type":"event"},{"anonymous":false,"inputs":[{"indexed":true,"internalType":"address","name":"account","type":"address"}],"name":"FarmerRemoved","type":"event"},{"anonymous":false,"inputs":[{"indexed":true,"internalType":"address","name":"account","type":"address"}],"name":"LabAdded","type":"event"},{"anonymous":false,"inputs":[{"indexed":true,"internalType":"address","name":"account","type":"address"}],"name":"LabRemoved","type":"event"},{"anonymous":false,"inputs":[{"indexed":true,"internalType":"string","name":"id","type":"string"},{"indexed":false,"internalType":"uint256","name":"cadmiumPpm","type":"uint256"},{"indexed":false,"internalType":"enum DurianTrust.RiskLevel","name":"riskLevel","type":"uint8"}],"name":"LabReportUpdated","type":"event"},{"anonymous":false,"inputs":[{"indexed":true,"internalType":"address","name":"account","type":"address"}],"name":"LogisticsAdded","type":"event"},{"anonymous":false,"inputs":[{"indexed":true,"internalType":"address","name":"account","type":"address"}],"name":"LogisticsRemoved","type":"event"},{"anonymous":false,"inputs":[{"indexed":true,"internalType":"string","name":"id","type":"string"},{"indexed":false,"internalType":"string","name":"stageVi","type":"string"}],"name":"TimelineEventAdded","type":"event"},{"inputs":[],"name":"PPM_SCALE","outputs":[{"internalType":"uint256","name":"","type":"uint256"}],"stateMutability":"view","type":"function"},{"inputs":[{"internalType":"address","name":"account","type":"address"}],"name":"addFarmer","outputs":[],"stateMutability":"nonpayable","type":"function"},{"inputs":[{"internalType":"address","name":"account","type":"address"}],"name":"addLab","outputs":[],"stateMutability":"nonpayable","type":"function"},{"inputs":[{"internalType":"address","name":"account","type":"address"}],"name":"addLogistics","outputs":[],"stateMutability":"nonpayable","type":"function"},{"inputs":[{"internalType":"string","name":"id","type":"string"},{"internalType":"string","name":"stageVi","type":"string"},{"internalType":"string","name":"stageEn","type":"string"},{"internalType":"string","name":"locationVi","type":"string"},{"internalType":"string","name":"locationEn","type":"string"},{"internalType":"string","name":"date","type":"string"},{"internalType":"uint8","name":"status","type":"uint8"}],"name":"addTimelineEvent","outputs":[],"stateMutability":"nonpayable","type":"function"},{"inputs":[{"internalType":"string","name":"id","type":"string"}],"name":"getBatch","outputs":[{"internalType":"string","name":"farmVi","type":"string"},{"internalType":"string","name":"farmEn","type":"string"},{"internalType":"string","name":"provinceVi","type":"string"},{"internalType":"string","name":"provinceEn","type":"string"},{"internalType":"string","name":"harvestDate","type":"string"},{"internalType":"uint256","name":"cadmiumPpm","type":"uint256"},{"internalType":"uint256","name":"thresholdPpm","type":"uint256"},{"internalType":"string","name":"aiResultVi","type":"string"},{"internalType":"string","name":"aiResultEn","type":"string"},{"internalType":"uint256","name":"confidence","type":"uint256"},{"internalType":"enum DurianTrust.RiskLevel","name":"riskLevel","type":"uint8"},{"internalType":"string","name":"riskCauseVi","type":"string"},{"internalType":"string","name":"riskCauseEn","type":"string"}],"stateMutability":"view","type":"function"},{"inputs":[{"internalType":"uint256","name":"tokenId","type":"uint256"}],"name":"getBatchIdByTokenId","outputs":[{"internalType":"string","name":"","type":"string"}],"stateMutability":"view","type":"function"},{"inputs":[],"name":"getBatchIds","outputs":[{"internalType":"string[]","name":"","type":"string[]"}],"stateMutability":"view","type":"function"},{"inputs":[{"internalType":"string","name":"id","type":"string"}],"name":"getLabReportHistory","outputs":[{"components":[{"internalType":"uint256","name":"cadmiumPpm","type":"uint256"},{"internalType":"uint256","name":"thresholdPpm","type":"uint256"},{"internalType":"string","name":"aiResultVi","type":"string"},{"internalType":"string","name":"aiResultEn","type":"string"},{"internalType":"uint256","name":"confidence","type":"uint256"},{"internalType":"enum DurianTrust.RiskLevel","name":"riskLevel","type":"uint8"},{"internalType":"string","name":"riskCauseVi","type":"string"},{"internalType":"string","name":"riskCauseEn","type":"string"},{"internalType":"uint256","name":"timestamp","type":"uint256"},{"internalType":"address","name":"reporter","type":"address"}],"internalType":"struct DurianTrust.LabReport[]","name":"","type":"tuple[]"}],"stateMutability":"view","type":"function"},{"inputs":[{"internalType":"string","name":"id","type":"string"}],"name":"getLatestLabReport","outputs":[{"components":[{"internalType":"uint256","name":"cadmiumPpm","type":"uint256"},{"internalType":"uint256","name":"thresholdPpm","type":"uint256"},{"internalType":"string","name":"aiResultVi","type":"string"},{"internalType":"string","name":"aiResultEn","type":"string"},{"internalType":"uint256","name":"confidence","type":"uint256"},{"internalType":"enum DurianTrust.RiskLevel","name":"riskLevel","type":"uint8"},{"internalType":"string","name":"riskCauseVi","type":"string"},{"internalType":"string","name":"riskCauseEn","type":"string"},{"internalType":"uint256","name":"timestamp","type":"uint256"},{"internalType":"address","name":"reporter","type":"address"}],"internalType":"struct DurianTrust.LabReport","name":"","type":"tuple"}],"stateMutability":"view","type":"function"},{"inputs":[{"internalType":"uint256","name":"tokenId","type":"uint256"}],"name":"getRegistrant","outputs":[{"internalType":"address","name":"","type":"address"}],"stateMutability":"view","type":"function"},{"inputs":[{"internalType":"string","name":"id","type":"string"}],"name":"getTimeline","outputs":[{"components":[{"internalType":"string","name":"stageVi","type":"string"},{"internalType":"string","name":"stageEn","type":"string"},{"internalType":"string","name":"locationVi","type":"string"},{"internalType":"string","name":"locationEn","type":"string"},{"internalType":"string","name":"date","type":"string"},{"internalType":"uint8","name":"status","type":"uint8"}],"internalType":"struct DurianTrust.TimelineEvent[]","name":"","type":"tuple[]"}],"stateMutability":"view","type":"function"},{"inputs":[{"internalType":"string","name":"batchId","type":"string"}],"name":"getTokenIdByBatchId","outputs":[{"internalType":"uint256","name":"","type":"uint256"}],"stateMutability":"view","type":"function"},{"inputs":[{"internalType":"address","name":"account","type":"address"}],"name":"isFarmer","outputs":[{"internalType":"bool","name":"","type":"bool"}],"stateMutability":"view","type":"function"},{"inputs":[{"internalType":"address","name":"account","type":"address"}],"name":"isLab","outputs":[{"internalType":"bool","name":"","type":"bool"}],"stateMutability":"view","type":"function"},{"inputs":[{"internalType":"address","name":"account","type":"address"}],"name":"isLogistics","outputs":[{"internalType":"bool","name":"","type":"bool"}],"stateMutability":"view","type":"function"},{"inputs":[],"name":"owner","outputs":[{"internalType":"address","name":"","type":"address"}],"stateMutability":"view","type":"function"},{"inputs":[{"internalType":"string","name":"id","type":"string"},{"internalType":"string","name":"farmVi","type":"string"},{"internalType":"string","name":"farmEn","type":"string"},{"internalType":"string","name":"provinceVi","type":"string"},{"internalType":"string","name":"provinceEn","type":"string"},{"internalType":"string","name":"harvestDate","type":"string"},{"internalType":"uint256","name":"cadmiumPpm","type":"uint256"},{"internalType":"uint256","name":"thresholdPpm","type":"uint256"},{"internalType":"string","name":"aiResultVi","type":"string"},{"internalType":"string","name":"aiResultEn","type":"string"},{"internalType":"uint256","name":"confidence","type":"uint256"},{"internalType":"enum DurianTrust.RiskLevel","name":"riskLevel","type":"uint8"},{"internalType":"string","name":"riskCauseVi","type":"string"},{"internalType":"string","name":"riskCauseEn","type":"string"}],"name":"registerBatch","outputs":[],"stateMutability":"nonpayable","type":"function"},{"inputs":[{"internalType":"address","name":"account","type":"address"}],"name":"removeFarmer","outputs":[],"stateMutability":"nonpayable","type":"function"},{"inputs":[{"internalType":"address","name":"account","type":"address"}],"name":"removeLab","outputs":[],"stateMutability":"nonpayable","type":"function"},{"inputs":[{"internalType":"address","name":"account","type":"address"}],"name":"removeLogistics","outputs":[],"stateMutability":"nonpayable","type":"function"},{"inputs":[{"internalType":"string","name":"id","type":"string"},{"internalType":"uint256","name":"cadmiumPpm","type":"uint256"},{"internalType":"uint256","name":"thresholdPpm","type":"uint256"},{"internalType":"string","name":"aiResultVi","type":"string"},{"internalType":"string","name":"aiResultEn","type":"string"},{"internalType":"uint256","name":"confidence","type":"uint256"},{"internalType":"enum DurianTrust.RiskLevel","name":"riskLevel","type":"uint8"},{"internalType":"string","name":"riskCauseVi","type":"string"},{"internalType":"string","name":"riskCauseEn","type":"string"}],"name":"updateLabReport","outputs":[],"stateMutability":"nonpayable","type":"function"}],"evm":{"bytecode":{"linkReferences":{},"object":"6080806040523461002e57612261600155600080546001600160a01b03191633179055611dec90816100348239f35b600080fdfe6080604052600436101561001257600080fd5b60003560e01c806310c3a2fb1461168f578063163e8aa21461161c5780632c23b26e1461155d5780633aa78723146114e7578063462190b1146113fe5780635c30b61b146111815780635e3908801461113e57806364cc51ff146111215780637969d39e1461100b5780637ed2253c14610e0357806380c3f96d14610d8d5780638305866f14610d4a5780638da5cb5b14610d21578063a08550a214610cc0578063a935745214610c72578063b942906914610c2f578063ba43a44514610797578063d5a0cc01146106ac578063d8be9e46146104b5578063dc576e491461043f578063e6bf3fdc146103cc5763f9ca42741461010e57600080fd5b346103c7576020806003193601126103c7576004356001600160401b0381116103c75761013f903690600401611775565b60405161016f60ff600684519386818188019661015d81838a6117cb565b81016002815203019020015416611b8e565b604051838184516101818183876117cb565b81016002815203019020604051906101988261171d565b6101a181611bd1565b82526101af60018201611bd1565b918581019283526101c260028301611bd1565b946040820195865261026d876101da60038601611bd1565b96606085019788526101ee60048701611bd1565b946080810195865260c060ff600661020860058b01611bd1565b9960a085019a8b52015416151591015261023f6040518381875161022d8183886117cb565b81016003815203019020541515611c77565b604051828186516102518183876117cb565b81016003815203019020936040519384928392519283916117cb565b81016003815203019020549060001982019182116103b1576102989161029291611a6a565b50611cb4565b925194519351905191518351878501519060408601519160608701519360808801519660a089015196600388101561039b5760c08a01519960e001519a6040519d8e809e6101a080835282016102ed916117ee565b918183039101526102fd916117ee565b8c810360408e015261030e916117ee565b8b810360608d015261031f916117ee565b8a810360808c0152610330916117ee565b9160a08a015260c089015287810360e089015261034c916117ee565b86810361010088015261035e916117ee565b91610120860152610140850161037391611813565b838103610160850152610385916117ee565b828103610180840152610397916117ee565b0390f35b634e487b7160e01b600052602160045260246000fd5b634e487b7160e01b600052601160045260246000fd5b600080fd5b346103c75760203660031901126103c7576004356001600160a01b03818116918290036103c757610402906000541633146118c9565b806000526009602052604060002060ff1981541690557fa5e0f060af304ab17dd418c7927e3da3ae7868189bf387aee09ab179ccc572f2600080a2005b346103c75760203660031901126103c7576004356001600160a01b03818116918290036103c757610475906000541633146118c9565b80600052600b6020526040600020600160ff198254161790557f2b7d3f1ebcfb4084e1fcda333d07ac5d144bf2e157fc711f6472a285c2b7946e600080a2005b346103c757610120806003193601126103c7576001600160401b03906004358281116103c7576104e9903690600401611775565b916024356064358281116103c757610505903690600401611775565b926084358381116103c75761051e903690600401611775565b9260c4359560038710156103c75760e4358281116103c757610544903690600401611775565b91610104359081116103c75761055e903690600401611775565b9160018060a01b036000541633148015610694575b1561064f577f44dbafd766ea4a9d9ca16433671c187f230b7702fa0f178fcfd59d40ca785ccc9660409661064c9561063c95610637946105dc6020886105cc60ff8f60069051858181875197019661015d81838a6117cb565b8d51809381928c519283916117cb565b81016003815203019020938b51956105f387611738565b8b875260443560208801528c870152606086015260a435608086015261061c8d60a08701611a5e565b60c085015260e0840152426101008401523390830152611a86565b611b6e565b9483519283526020830190611813565ba2005b60405162461bcd60e51b815260206004820152601f60248201527f4f6e6c79206c6162206f72206f776e65722063616e2063616c6c2074686973006044820152606490fd5b5033600052600a60205260ff60406000205416610573565b346103c7576020806003193601126103c7576004356001600160401b0381116103c7576106dd903690600401611775565b60006101206040516106ee81611738565b8281528285820152606060408201526060808201528260808201528260a0820152606060c0820152606060e082015282610100820152015261075d8260405161074860ff60068651938581818a019661015d81838a6117cb565b61023f6040518381875161022d8183886117cb565b81016003815203019020549060001982019182116103b1576107829161029291611a6a565b90610397604051928284938452830190611820565b346103c7576101c03660031901126103c7576001600160401b036004358181116103c7576107c9903690600401611775565b906024358181116103c7576107e2903690600401611775565b906044358181116103c7576107fb903690600401611775565b6064358281116103c757610813903690600401611775565b916084358181116103c75761082c903690600401611775565b60a4358281116103c757610844903690600401611775565b91610104358181116103c75761085e903690600401611775565b93610124358281116103c757610878903690600401611775565b9360036101643510156103c757610184358381116103c75761089e903690600401611775565b926101a4359081116103c7576108b8903690600401611775565b9360018060a01b036000541633148015610c17575b15610bc75760ff60066108ef60208d81604051938285809451938492016117cb565b81016002815203019020015416610b8b57610a4a97604051936109118561171d565b8b85528a602086015260408501526060840152608083015260a0820152600160c082015260c0600661095260208b81604051938285809451938492016117cb565b8101600281520301902061096784518261194f565b61097860208501516001830161194f565b61098960408501516002830161194f565b61099a60608501516003830161194f565b6109ab60808501516004830161194f565b6109bc60a08501516005830161194f565b01910151151560ff80198354169116179055604051602081816109e58b838151938492016117cb565b8101600381520301902092604051946109fd86611738565b60c435865260e435602087015260408601526060850152610144356080850152610a2d6101643560a08601611a5e565b60c084015260e08301524261010083015233610120830152611a86565b60015491826000526006602052610a6581604060002061194f565b826040516020818451610a7b81838589016117cb565b81016007815203019020558260005260086020526040600020336bffffffffffffffffffffffff60a01b82541617905560015460001981146103b15760010160015560055490600160401b821015610b75576001820180600555821015610b5f57610b3581610637610b4a937f472b6f7acd103a560dca6edf16cf1604a8e7fae4c9483c8f4f13f74405ca002c9560056000527f036b6384b5eca791c62761152d0c79bb0604c104a5fb6f4eb0703f3154bb3db00161194f565b926040519182916040835260408301906117ee565b610b5a6020830161016435611813565b0390a3005b634e487b7160e01b600052603260045260246000fd5b634e487b7160e01b600052604160045260246000fd5b60405162461bcd60e51b8152602060048201526014602482015273426174636820616c72656164792065786973747360601b6044820152606490fd5b60405162461bcd60e51b815260206004820152602260248201527f4f6e6c79206661726d6572206f72206f776e65722063616e2063616c6c207468604482015261697360f01b6064820152608490fd5b5033600052600960205260ff604060002054166108cd565b346103c75760203660031901126103c7576004356001600160a01b038116908190036103c7576000526009602052602060ff604060002054166040519015158152f35b346103c75760203660031901126103c7576020600435806000526008825260018060a01b0390610caa82604060002054161515611d6a565b6000526008825260406000205416604051908152f35b346103c75760203660031901126103c757600435806000526006602052610cf5610cee604060002054611915565b1515611d6a565b6000526006602052610397610d0d6040600020611bd1565b6040519182916020835260208301906117ee565b346103c75760003660031901126103c7576000546040516001600160a01b039091168152602090f35b346103c75760203660031901126103c7576004356001600160a01b038116908190036103c757600052600b602052602060ff604060002054166040519015158152f35b346103c75760203660031901126103c7576004356001600160a01b03818116918290036103c757610dc3906000541633146118c9565b8060005260096020526040600020600160ff198254161790557f2e0ded4123377a3c2bc9a26f1717655a129e2f20752924d42e730ec89c83dbd0600080a2005b346103c7576020806003193601126103c7576004356001600160401b0381116103c757610e34903690600401611775565b604051815192610e818180850195610e4d8186896117cb565b840195600295868852610e7060ff8099888660069a8b9303019020015416611b8e565b6040519384928392519283916117cb565b8101600481520301902091825490610e9882611d53565b94610ea66040519687611754565b82865260009485528385208487019591865b858410610f8e57505050505050604051928184019082855251809152604084019160408260051b86010193926000965b838810610ef55786860387f35b90919293948380600192603f198a8203018652885190610f71610f5e610f4b610f39610f29865160c08088528701906117ee565b87870151868203898801526117ee565b604086015185820360408701526117ee565b60608086015190858303908601526117ee565b60808085015190848303908501526117ee565b918660a08092015116910152970193019701969093929193610ee8565b848760019260409b999b51610fa281611702565b610fab87611bd1565b8152610fb8858801611bd1565b83820152610fc7868801611bd1565b6040820152610fd860038801611bd1565b6060820152610fe960048801611bd1565b60808201528d60058801541660a0820152815201930193019291979597610eb8565b346103c7576020806003193601126103c7576004356001600160401b0381116103c7578161104061105f923690600401611775565b60405190610e7060ff600683519486818187019761015d81838b6117cb565b810160038152030190209081549161107683611d53565b926110846040519485611754565b8084528284018092600052836000206000915b8383106110fe5750505050604051918083019381845251809452604083019360408160051b85010192916000955b8287106110d25785850386f35b9091929382806110ee600193603f198a82030186528851611820565b96019201960195929190926110c5565b600a86600192611110859a999a611cb4565b815201920192019190959495611097565b346103c75760003660031901126103c75760206040516127108152f35b346103c75760203660031901126103c7576004356001600160a01b038116908190036103c757600052600a602052602060ff604060002054166040519015158152f35b346103c75760e03660031901126103c7576001600160401b036004358181116103c7576111b2903690600401611775565b906024358181116103c7576111cb903690600401611775565b6044358281116103c7576111e3903690600401611775565b916064358181116103c7576111fc903690600401611775565b936084358281116103c757611215903690600401611775565b9160a4359081116103c75761122e903690600401611775565b60c4359060ff82168092036103c7576000546001600160a01b0316331480156113e6575b1561138d5760069661128e604051855161127d60ff60209c848e8096818d019661015d81838a6117cb565b6040518093819289519283916117cb565b81016004815203019020604051906112a582611702565b87825289820198895260408201928352606082019687526080820193845260a08201948552805493600160401b851015610b755760018501808355851015610b5f576113576113739861134d6005966113438f9e7f89b67f9499d4ebcce6e17c7e8fa6444cca5a12771a786407b9c287d09b2003779f60ff9b6006611339926113619b60005260002091020199518a61194f565b516001890161194f565b516002870161194f565b516003850161194f565b516004830161194f565b0191511660ff19825416179055611b6e565b926113886040519282849384528301906117ee565b0390a2005b60405162461bcd60e51b815260206004820152602b60248201527f4f6e6c79206c6f67697374696373206163746f72206f72206f776e657220636160448201526a6e2063616c6c207468697360a81b6064820152608490fd5b5033600052600b60205260ff60406000205416611252565b346103c75760003660031901126103c75760055461141b81611d53565b906114296040519283611754565b808252602090818301908160056000527f036b6384b5eca791c62761152d0c79bb0604c104a5fb6f4eb0703f3154bb3db06000915b8383106114c55750505050604051918083019381845251809452604083019360408160051b85010192916000955b8287106114995785850386f35b9091929382806114b5600193603f198a820301865288516117ee565b960192019601959291909261148c565b60018681926114d6859a999a611bd1565b81520192019201919095949561145e565b346103c75760203660031901126103c7576004356001600160a01b03818116918290036103c75761151d906000541633146118c9565b80600052600a6020526040600020600160ff198254161790557f0cbced5fee1e31aa2167a435050f7dc7ed5de6d603cce2b5d547ae365ae3632e600080a2005b346103c7576020806003193601126103c7576004356001600160401b0381116103c75761158e903690600401611775565b604051908051918381818401946115a68183886117cb565b8101600781520301902054156115e0576115cd9183916040519384928392519283916117cb565b8101600781520301902054604051908152f35b60405162461bcd60e51b815260048101849052601460248201527310985d18da081b9bdd081c9959da5cdd195c995960621b6044820152606490fd5b346103c75760203660031901126103c7576004356001600160a01b03818116918290036103c757611652906000541633146118c9565b80600052600a602052604060002060ff1981541690557fa04c1585bb4aa71bab84cfcc9a7d7accf0eeae3778b33aec8483b354b1ef9e21600080a2005b346103c75760203660031901126103c7576004356001600160a01b03818116918290036103c7576116c5906000541633146118c9565b80600052600b602052604060002060ff1981541690557fca7c1dfc3ee1f412eb8e70c7580ed5594f0ec4a03f4b4aa7674b066fb7f705ac600080a2005b60c081019081106001600160401b03821117610b7557604052565b60e081019081106001600160401b03821117610b7557604052565b61014081019081106001600160401b03821117610b7557604052565b90601f801991011681019081106001600160401b03821117610b7557604052565b81601f820112156103c7578035906001600160401b038211610b7557604051926117a9601f8401601f191660200185611754565b828452602083830101116103c757816000926020809301838601378301015290565b60005b8381106117de5750506000910152565b81810151838201526020016117ce565b90602091611807815180928185528580860191016117cb565b601f01601f1916010190565b90600382101561039b5752565b9081518152602082015160208201526118a361189161186361185160408601516101408060408801528601906117ee565b606086015185820360608701526117ee565b6080850151608085015261187f60a086015160a0860190611813565b60c085015184820360c08601526117ee565b60e084015183820360e08501526117ee565b6101008084015190830152610120928301516001600160a01b0316929091019190915290565b156118d057565b60405162461bcd60e51b815260206004820152601860248201527f4f6e6c79206f776e65722063616e2063616c6c207468697300000000000000006044820152606490fd5b90600182811c92168015611945575b602083101461192f57565b634e487b7160e01b600052602260045260246000fd5b91607f1691611924565b91909182516001600160401b038111610b755761196c8254611915565b601f8111611a16575b50602080601f83116001146119b25750819293946000926119a7575b50508160011b916000199060031b1c1916179055565b015190503880611991565b90601f198316958460005282600020926000905b8882106119fe575050836001959697106119e5575b505050811b019055565b015160001960f88460031b161c191690553880806119db565b806001859682949686015181550195019301906119c6565b600083815260208120601f840160051c81019260208510611a54575b601f0160051c01915b828110611a49575050611975565b818155600101611a3b565b9092508290611a32565b600382101561039b5752565b8054821015610b5f57600052600a602060002091020190600090565b8054600160401b811015610b7557611aa391600182018155611a6a565b611b58578151815560208201516001820155611ac660408301516002830161194f565b611ad760608301516003830161194f565b6080820151600482015560a08201519060058101600383101561039b5760099260ff80198354169116179055611b1460c08401516006830161194f565b611b2560e08401516007830161194f565b6101008301516008820155019061012060018060a01b03910151166bffffffffffffffffffffffff60a01b825416179055565b634e487b7160e01b600052600060045260246000fd5b611b86906020604051928284809451938492016117cb565b810103902090565b15611b9557565b60405162461bcd60e51b815260206004820152601460248201527310985d18da08191bd95cc81b9bdd08195e1a5cdd60621b6044820152606490fd5b9060405191826000825492611be584611915565b908184526001948581169081600014611c545750600114611c11575b5050611c0f92500383611754565b565b9093915060005260209081600020936000915b818310611c3c575050611c0f93508201013880611c01565b85548884018501529485019487945091830191611c24565b915050611c0f94506020925060ff191682840152151560051b8201013880611c01565b15611c7e57565b60405162461bcd60e51b815260206004820152600e60248201526d4e6f206c6162207265706f72747360901b6044820152606490fd5b90604051611cc181611738565b61012081938054835260018101546020840152611ce060028201611bd1565b6040840152611cf160038201611bd1565b606084015260048101546080840152611d1460ff60058301541660a08501611a5e565b611d2060068201611bd1565b60c0840152611d3160078201611bd1565b60e08401526008810154610100840152600901546001600160a01b0316910152565b6001600160401b038111610b755760051b60200190565b15611d7157565b60405162461bcd60e51b815260206004820152601760248201527f546f6b656e204944206e6f7420726567697374657265640000000000000000006044820152606490fdfea26469706673582212208124544e01ff162b107a6788e80962522269ba412b213b8f87e80f5023acec8164736f6c63430008140033","opcodes":"PUSH1 0x80 DUP1 PUSH1 0x40 MSTORE CALLVALUE PUSH2 0x2E JUMPI PUSH2 0x2261 PUSH1 0x1 SSTORE PUSH1 0x0 DUP1 SLOAD PUSH1 0x1 PUSH1 0x1 PUSH1 0xA0 SHL SUB NOT AND CALLER OR SWAP1 SSTORE PUSH2 0x1DEC SWAP1 DUP2 PUSH2 0x34 DUP3 CODECOPY RETURN JUMPDEST PUSH1 0x0 DUP1 REVERT INVALID PUSH1 0x80 PUSH1 0x40 MSTORE PUSH1 0x4 CALLDATASIZE LT ISZERO PUSH2 0x12 JUMPI PUSH1 0x0 DUP1 REVERT JUMPDEST PUSH1 0x0 CALLDATALOAD PUSH1 0xE0 SHR DUP1 PUSH4 0x10C3A2FB EQ PUSH2 0x168F JUMPI DUP1 PUSH4 0x163E8AA2 EQ PUSH2 0x161C JUMPI DUP1 PUSH4 0x2C23B26E EQ PUSH2 0x155D JUMPI DUP1 PUSH4 0x3AA78723 EQ PUSH2 0x14E7 JUMPI DUP1 PUSH4 0x462190B1 EQ PUSH2 0x13FE JUMPI DUP1 PUSH4 0x5C30B61B EQ PUSH2 0x1181 JUMPI DUP1 PUSH4 0x5E390880 EQ PUSH2 0x113E JUMPI DUP1 PUSH4 0x64CC51FF EQ PUSH2 0x1121 JUMPI DUP1 PUSH4 0x7969D39E EQ PUSH2 0x100B JUMPI DUP1 PUSH4 0x7ED2253C EQ PUSH2 0xE03 JUMPI DUP1 PUSH4 0x80C3F96D EQ PUSH2 0xD8D JUMPI DUP1 PUSH4 0x8305866F EQ PUSH2 0xD4A JUMPI DUP1 PUSH4 0x8DA5CB5B EQ PUSH2 0xD21 JUMPI DUP1 PUSH4 0xA08550A2 EQ PUSH2 0xCC0 JUMPI DUP1 PUSH4 0xA9357452 EQ PUSH2 0xC72 JUMPI DUP1 PUSH4 0xB9429069 EQ PUSH2 0xC2F JUMPI DUP1 PUSH4 0xBA43A445 EQ PUSH2 0x797 JUMPI DUP1 PUSH4 0xD5A0CC01 EQ PUSH2 0x6AC JUMPI DUP1 PUSH4 0xD8BE9E46 EQ PUSH2 0x4B5 JUMPI DUP1 PUSH4 0xDC576E49 EQ PUSH2 0x43F JUMPI DUP1 PUSH4 0xE6BF3FDC EQ PUSH2 0x3CC JUMPI PUSH4 0xF9CA4274 EQ PUSH2 0x10E JUMPI PUSH1 0x0 DUP1 REVERT JUMPDEST CALLVALUE PUSH2 0x3C7 JUMPI PUSH1 0x20 DUP1 PUSH1 0x3 NOT CALLDATASIZE ADD SLT PUSH2 0x3C7 JUMPI PUSH1 0x4 CALLDATALOAD PUSH1 0x1 PUSH1 0x1 PUSH1 0x40 SHL SUB DUP2 GT PUSH2 0x3C7 JUMPI PUSH2 0x13F SWAP1 CALLDATASIZE SWAP1 PUSH1 0x4 ADD PUSH2 0x1775 JUMP JUMPDEST PUSH1 0x40 MLOAD PUSH2 0x16F PUSH1 0xFF PUSH1 0x6 DUP5 MLOAD SWAP4 DUP7 DUP2 DUP2 DUP9 ADD SWAP7 PUSH2 0x15D DUP2 DUP4 DUP11 PUSH2 0x17CB JUMP JUMPDEST DUP2 ADD PUSH1 0x2 DUP2 MSTORE SUB ADD SWAP1 KECCAK256 ADD SLOAD AND PUSH2 0x1B8E JUMP JUMPDEST PUSH1 0x40 MLOAD DUP4 DUP2 DUP5 MLOAD PUSH2 0x181 DUP2 DUP4 DUP8 PUSH2 0x17CB JUMP JUMPDEST DUP2 ADD PUSH1 0x2 DUP2 MSTORE SUB ADD SWAP1 KECCAK256 PUSH1 0x40 MLOAD SWAP1 PUSH2 0x198 DUP3 PUSH2 0x171D JUMP JUMPDEST PUSH2 0x1A1 DUP2 PUSH2 0x1BD1 JUMP JUMPDEST DUP3 MSTORE PUSH2 0x1AF PUSH1 0x1 DUP3 ADD PUSH2 0x1BD1 JUMP JUMPDEST SWAP2 DUP6 DUP2 ADD SWAP3 DUP4 MSTORE PUSH2 0x1C2 PUSH1 0x2 DUP4 ADD PUSH2 0x1BD1 JUMP JUMPDEST SWAP5 PUSH1 0x40 DUP3 ADD SWAP6 DUP7 MSTORE PUSH2 0x26D DUP8 PUSH2 0x1DA PUSH1 0x3 DUP7 ADD PUSH2 0x1BD1 JUMP JUMPDEST SWAP7 PUSH1 0x60 DUP6 ADD SWAP8 DUP9 MSTORE PUSH2 0x1EE PUSH1 0x4 DUP8 ADD PUSH2 0x1BD1 JUMP JUMPDEST SWAP5 PUSH1 0x80 DUP2 ADD SWAP6 DUP7 MSTORE PUSH1 0xC0 PUSH1 0xFF PUSH1 0x6 PUSH2 0x208 PUSH1 0x5 DUP12 ADD PUSH2 0x1BD1 JUMP JUMPDEST SWAP10 PUSH1 0xA0 DUP6 ADD SWAP11 DUP12 MSTORE ADD SLOAD AND ISZERO ISZERO SWAP2 ADD MSTORE PUSH2 0x23F PUSH1 0x40 MLOAD DUP4 DUP2 DUP8 MLOAD PUSH2 0x22D DUP2 DUP4 DUP9 PUSH2 0x17CB JUMP JUMPDEST DUP2 ADD PUSH1 0x3 DUP2 MSTORE SUB ADD SWAP1 KECCAK256 SLOAD ISZERO ISZERO PUSH2 0x1C77 JUMP JUMPDEST PUSH1 0x40 MLOAD DUP3 DUP2 DUP7 MLOAD PUSH2 0x251 DUP2 DUP4 DUP8 PUSH2 0x17CB JUMP JUMPDEST DUP2 ADD PUSH1 0x3 DUP2 MSTORE SUB ADD SWAP1 KECCAK256 SWAP4 PUSH1 0x40 MLOAD SWAP4 DUP5 SWAP3 DUP4 SWAP3 MLOAD SWAP3 DUP4 SWAP2 PUSH2 0x17CB JUMP JUMPDEST DUP2 ADD PUSH1 0x3 DUP2 MSTORE SUB ADD SWAP1 KECCAK256 SLOAD SWAP1 PUSH1 0x0 NOT DUP3 ADD SWAP2 DUP3 GT PUSH2 0x3B1 JUMPI PUSH2 0x298 SWAP2 PUSH2 0x292 SWAP2 PUSH2 0x1A6A JUMP JUMPDEST POP PUSH2 0x1CB4 JUMP JUMPDEST SWAP3 MLOAD SWAP5 MLOAD SWAP4 MLOAD SWAP1 MLOAD SWAP2 MLOAD DUP4 MLOAD DUP8 DUP6 ADD MLOAD SWAP1 PUSH1 0x40 DUP7 ADD MLOAD SWAP2 PUSH1 0x60 DUP8 ADD MLOAD SWAP4 PUSH1 0x80 DUP9 ADD MLOAD SWAP7 PUSH1 0xA0 DUP10 ADD MLOAD SWAP7 PUSH1 0x3 DUP9 LT ISZERO PUSH2 0x39B JUMPI PUSH1 0xC0 DUP11 ADD MLOAD SWAP10 PUSH1 0xE0 ADD MLOAD SWAP11 PUSH1 0x40 MLOAD SWAP14 DUP15 DUP1 SWAP15 PUSH2 0x1A0 DUP1 DUP4 MSTORE DUP3 ADD PUSH2 0x2ED SWAP2 PUSH2 0x17EE JUMP JUMPDEST SWAP2 DUP2 DUP4 SUB SWAP2 ADD MSTORE PUSH2 0x2FD SWAP2 PUSH2 0x17EE JUMP JUMPDEST DUP13 DUP2 SUB PUSH1 0x40 DUP15 ADD MSTORE PUSH2 0x30E SWAP2 PUSH2 0x17EE JUMP JUMPDEST DUP12 DUP2 SUB PUSH1 0x60 DUP14 ADD MSTORE PUSH2 0x31F SWAP2 PUSH2 0x17EE JUMP JUMPDEST DUP11 DUP2 SUB PUSH1 0x80 DUP13 ADD MSTORE PUSH2 0x330 SWAP2 PUSH2 0x17EE JUMP JUMPDEST SWAP2 PUSH1 0xA0 DUP11 ADD MSTORE PUSH1 0xC0 DUP10 ADD MSTORE DUP8 DUP2 SUB PUSH1 0xE0 DUP10 ADD MSTORE PUSH2 0x34C SWAP2 PUSH2 0x17EE JUMP JUMPDEST DUP7 DUP2 SUB PUSH2 0x100 DUP9 ADD MSTORE PUSH2 0x35E SWAP2 PUSH2 0x17EE JUMP JUMPDEST SWAP2 PUSH2 0x120 DUP7 ADD MSTORE PUSH2 0x140 DUP6 ADD PUSH2 0x373 SWAP2 PUSH2 0x1813 JUMP JUMPDEST DUP4 DUP2 SUB PUSH2 0x160 DUP6 ADD MSTORE PUSH2 0x385 SWAP2 PUSH2 0x17EE JUMP JUMPDEST DUP3 DUP2 SUB PUSH2 0x180 DUP5 ADD MSTORE PUSH2 0x397 SWAP2 PUSH2 0x17EE JUMP JUMPDEST SUB SWAP1 RETURN JUMPDEST PUSH4 0x4E487B71 PUSH1 0xE0 SHL PUSH1 0x0 MSTORE PUSH1 0x21 PUSH1 0x4 MSTORE PUSH1 0x24 PUSH1 0x0 REVERT JUMPDEST PUSH4 0x4E487B71 PUSH1 0xE0 SHL PUSH1 0x0 MSTORE PUSH1 0x11 PUSH1 0x4 MSTORE PUSH1 0x24 PUSH1 0x0 REVERT JUMPDEST PUSH1 0x0 DUP1 REVERT JUMPDEST CALLVALUE PUSH2 0x3C7 JUMPI PUSH1 0x20 CALLDATASIZE PUSH1 0x3 NOT ADD SLT PUSH2 0x3C7 JUMPI PUSH1 0x4 CALLDATALOAD PUSH1 0x1 PUSH1 0x1 PUSH1 0xA0 SHL SUB DUP2 DUP2 AND SWAP2 DUP3 SWAP1 SUB PUSH2 0x3C7 JUMPI PUSH2 0x402 SWAP1 PUSH1 0x0 SLOAD AND CALLER EQ PUSH2 0x18C9 JUMP JUMPDEST DUP1 PUSH1 0x0 MSTORE PUSH1 0x9 PUSH1 0x20 MSTORE PUSH1 0x40 PUSH1 0x0 KECCAK256 PUSH1 0xFF NOT DUP2 SLOAD AND SWAP1 SSTORE PUSH32 0xA5E0F060AF304AB17DD418C7927E3DA3AE7868189BF387AEE09AB179CCC572F2 PUSH1 0x0 DUP1 LOG2 STOP JUMPDEST CALLVALUE PUSH2 0x3C7 JUMPI PUSH1 0x20 CALLDATASIZE PUSH1 0x3 NOT ADD SLT PUSH2 0x3C7 JUMPI PUSH1 0x4 CALLDATALOAD PUSH1 0x1 PUSH1 0x1 PUSH1 0xA0 SHL SUB DUP2 DUP2 AND SWAP2 DUP3 SWAP1 SUB PUSH2 0x3C7 JUMPI PUSH2 0x475 SWAP1 PUSH1 0x0 SLOAD AND CALLER EQ PUSH2 0x18C9 JUMP JUMPDEST DUP1 PUSH1 0x0 MSTORE PUSH1 0xB PUSH1 0x20 MSTORE PUSH1 0x40 PUSH1 0x0 KECCAK256 PUSH1 0x1 PUSH1 0xFF NOT DUP3 SLOAD AND OR SWAP1 SSTORE PUSH32 0x2B7D3F1EBCFB4084E1FCDA333D07AC5D144BF2E157FC711F6472A285C2B7946E PUSH1 0x0 DUP1 LOG2 STOP JUMPDEST CALLVALUE PUSH2 0x3C7 JUMPI PUSH2 0x120 DUP1 PUSH1 0x3 NOT CALLDATASIZE ADD SLT PUSH2 0x3C7 JUMPI PUSH1 0x1 PUSH1 0x1 PUSH1 0x40 SHL SUB SWAP1 PUSH1 0x4 CALLDATALOAD DUP3 DUP2 GT PUSH2 0x3C7 JUMPI PUSH2 0x4E9 SWAP1 CALLDATASIZE SWAP1 PUSH1 0x4 ADD PUSH2 0x1775 JUMP JUMPDEST SWAP2 PUSH1 0x24 CALLDATALOAD PUSH1 0x64 CALLDATALOAD DUP3 DUP2 GT PUSH2 0x3C7 JUMPI PUSH2 0x505 SWAP1 CALLDATASIZE SWAP1 PUSH1 0x4 ADD PUSH2 0x1775 JUMP JUMPDEST SWAP3 PUSH1 0x84 CALLDATALOAD DUP4 DUP2 GT PUSH2 0x3C7 JUMPI PUSH2 0x51E SWAP1 CALLDATASIZE SWAP1 PUSH1 0x4 ADD PUSH2 0x1775 JUMP JUMPDEST SWAP3 PUSH1 0xC4 CALLDATALOAD SWAP6 PUSH1 0x3 DUP8 LT ISZERO PUSH2 0x3C7 JUMPI PUSH1 0xE4 CALLDATALOAD DUP3 DUP2 GT PUSH2 0x3C7 JUMPI PUSH2 0x544 SWAP1 CALLDATASIZE SWAP1 PUSH1 0x4 ADD PUSH2 0x1775 JUMP JUMPDEST SWAP2 PUSH2 0x104 CALLDATALOAD SWAP1 DUP2 GT PUSH2 0x3C7 JUMPI PUSH2 0x55E SWAP1 CALLDATASIZE SWAP1 PUSH1 0x4 ADD PUSH2 0x1775 JUMP JUMPDEST SWAP2 PUSH1 0x1 DUP1 PUSH1 0xA0 SHL SUB PUSH1 0x0 SLOAD AND CALLER EQ DUP1 ISZERO PUSH2 0x694 JUMPI JUMPDEST ISZERO PUSH2 0x64F JUMPI PUSH32 0x44DBAFD766EA4A9D9CA16433671C187F230B7702FA0F178FCFD59D40CA785CCC SWAP7 PUSH1 0x40 SWAP7 PUSH2 0x64C SWAP6 PUSH2 0x63C SWAP6 PUSH2 0x637 SWAP5 PUSH2 0x5DC PUSH1 0x20 DUP9 PUSH2 0x5CC PUSH1 0xFF DUP16 PUSH1 0x6 SWAP1 MLOAD DUP6 DUP2 DUP2 DUP8 MLOAD SWAP8 ADD SWAP7 PUSH2 0x15D DUP2 DUP4 DUP11 PUSH2 0x17CB JUMP JUMPDEST DUP14 MLOAD DUP1 SWAP4 DUP2 SWAP3 DUP13 MLOAD SWAP3 DUP4 SWAP2 PUSH2 0x17CB JUMP JUMPDEST DUP2 ADD PUSH1 0x3 DUP2 MSTORE SUB ADD SWAP1 KECCAK256 SWAP4 DUP12 MLOAD SWAP6 PUSH2 0x5F3 DUP8 PUSH2 0x1738 JUMP JUMPDEST DUP12 DUP8 MSTORE PUSH1 0x44 CALLDATALOAD PUSH1 0x20 DUP9 ADD MSTORE DUP13 DUP8 ADD MSTORE PUSH1 0x60 DUP7 ADD MSTORE PUSH1 0xA4 CALLDATALOAD PUSH1 0x80 DUP7 ADD MSTORE PUSH2 0x61C DUP14 PUSH1 0xA0 DUP8 ADD PUSH2 0x1A5E JUMP JUMPDEST PUSH1 0xC0 DUP6 ADD MSTORE PUSH1 0xE0 DUP5 ADD MSTORE TIMESTAMP PUSH2 0x100 DUP5 ADD MSTORE CALLER SWAP1 DUP4 ADD MSTORE PUSH2 0x1A86 JUMP JUMPDEST PUSH2 0x1B6E JUMP JUMPDEST SWAP5 DUP4 MLOAD SWAP3 DUP4 MSTORE PUSH1 0x20 DUP4 ADD SWAP1 PUSH2 0x1813 JUMP JUMPDEST LOG2 STOP JUMPDEST PUSH1 0x40 MLOAD PUSH3 0x461BCD PUSH1 0xE5 SHL DUP2 MSTORE PUSH1 0x20 PUSH1 0x4 DUP3 ADD MSTORE PUSH1 0x1F PUSH1 0x24 DUP3 ADD MSTORE PUSH32 0x4F6E6C79206C6162206F72206F776E65722063616E2063616C6C207468697300 PUSH1 0x44 DUP3 ADD MSTORE PUSH1 0x64 SWAP1 REVERT JUMPDEST POP CALLER PUSH1 0x0 MSTORE PUSH1 0xA PUSH1 0x20 MSTORE PUSH1 0xFF PUSH1 0x40 PUSH1 0x0 KECCAK256 SLOAD AND PUSH2 0x573 JUMP JUMPDEST CALLVALUE PUSH2 0x3C7 JUMPI PUSH1 0x20 DUP1 PUSH1 0x3 NOT CALLDATASIZE ADD SLT PUSH2 0x3C7 JUMPI PUSH1 0x4 CALLDATALOAD PUSH1 0x1 PUSH1 0x1 PUSH1 0x40 SHL SUB DUP2 GT PUSH2 0x3C7 JUMPI PUSH2 0x6DD SWAP1 CALLDATASIZE SWAP1 PUSH1 0x4 ADD PUSH2 0x1775 JUMP JUMPDEST PUSH1 0x0 PUSH2 0x120 PUSH1 0x40 MLOAD PUSH2 0x6EE DUP2 PUSH2 0x1738 JUMP JUMPDEST DUP3 DUP2 MSTORE DUP3 DUP6 DUP3 ADD MSTORE PUSH1 0x60 PUSH1 0x40 DUP3 ADD MSTORE PUSH1 0x60 DUP1 DUP3 ADD MSTORE DUP3 PUSH1 0x80 DUP3 ADD MSTORE DUP3 PUSH1 0xA0 DUP3 ADD MSTORE PUSH1 0x60 PUSH1 0xC0 DUP3 ADD MSTORE PUSH1 0x60 PUSH1 0xE0 DUP3 ADD MSTORE DUP3 PUSH2 0x100 DUP3 ADD MSTORE ADD MSTORE PUSH2 0x75D DUP3 PUSH1 0x40 MLOAD PUSH2 0x748 PUSH1 0xFF PUSH1 0x6 DUP7 MLOAD SWAP4 DUP6 DUP2 DUP2 DUP11 ADD SWAP7 PUSH2 0x15D DUP2 DUP4 DUP11 PUSH2 0x17CB JUMP JUMPDEST PUSH2 0x23F PUSH1 0x40 MLOAD DUP4 DUP2 DUP8 MLOAD PUSH2 0x22D DUP2 DUP4 DUP9 PUSH2 0x17CB JUMP JUMPDEST DUP2 ADD PUSH1 0x3 DUP2 MSTORE SUB ADD SWAP1 KECCAK256 SLOAD SWAP1 PUSH1 0x0 NOT DUP3 ADD SWAP2 DUP3 GT PUSH2 0x3B1 JUMPI PUSH2 0x782 SWAP2 PUSH2 0x292 SWAP2 PUSH2 0x1A6A JUMP JUMPDEST SWAP1 PUSH2 0x397 PUSH1 0x40 MLOAD SWAP3 DUP3 DUP5 SWAP4 DUP5 MSTORE DUP4 ADD SWAP1 PUSH2 0x1820 JUMP JUMPDEST CALLVALUE PUSH2 0x3C7 JUMPI PUSH2 0x1C0 CALLDATASIZE PUSH1 0x3 NOT ADD SLT PUSH2 0x3C7 JUMPI PUSH1 0x1 PUSH1 0x1 PUSH1 0x40 SHL SUB PUSH1 0x4 CALLDATALOAD DUP2 DUP2 GT PUSH2 0x3C7 JUMPI PUSH2 0x7C9 SWAP1 CALLDATASIZE SWAP1 PUSH1 0x4 ADD PUSH2 0x1775 JUMP JUMPDEST SWAP1 PUSH1 0x24 CALLDATALOAD DUP2 DUP2 GT PUSH2 0x3C7 JUMPI PUSH2 0x7E2 SWAP1 CALLDATASIZE SWAP1 PUSH1 0x4 ADD PUSH2 0x1775 JUMP JUMPDEST SWAP1 PUSH1 0x44 CALLDATALOAD DUP2 DUP2 GT PUSH2 0x3C7 JUMPI PUSH2 0x7FB SWAP1 CALLDATASIZE SWAP1 PUSH1 0x4 ADD PUSH2 0x1775 JUMP JUMPDEST PUSH1 0x64 CALLDATALOAD DUP3 DUP2 GT PUSH2 0x3C7 JUMPI PUSH2 0x813 SWAP1 CALLDATASIZE SWAP1 PUSH1 0x4 ADD PUSH2 0x1775 JUMP JUMPDEST SWAP2 PUSH1 0x84 CALLDATALOAD DUP2 DUP2 GT PUSH2 0x3C7 JUMPI PUSH2 0x82C SWAP1 CALLDATASIZE SWAP1 PUSH1 0x4 ADD PUSH2 0x1775 JUMP JUMPDEST PUSH1 0xA4 CALLDATALOAD DUP3 DUP2 GT PUSH2 0x3C7 JUMPI PUSH2 0x844 SWAP1 CALLDATASIZE SWAP1 PUSH1 0x4 ADD PUSH2 0x1775 JUMP JUMPDEST SWAP2 PUSH2 0x104 CALLDATALOAD DUP2 DUP2 GT PUSH2 0x3C7 JUMPI PUSH2 0x85E SWAP1 CALLDATASIZE SWAP1 PUSH1 0x4 ADD PUSH2 0x1775 JUMP JUMPDEST SWAP4 PUSH2 0x124 CALLDATALOAD DUP3 DUP2 GT PUSH2 0x3C7 JUMPI PUSH2 0x878 SWAP1 CALLDATASIZE SWAP1 PUSH1 0x4 ADD PUSH2 0x1775 JUMP JUMPDEST SWAP4 PUSH1 0x3 PUSH2 0x164 CALLDATALOAD LT ISZERO PUSH2 0x3C7 JUMPI PUSH2 0x184 CALLDATALOAD DUP4 DUP2 GT PUSH2 0x3C7 JUMPI PUSH2 0x89E SWAP1 CALLDATASIZE SWAP1 PUSH1 0x4 ADD PUSH2 0x1775 JUMP JUMPDEST SWAP3 PUSH2 0x1A4 CALLDATALOAD SWAP1 DUP2 GT PUSH2 0x3C7 JUMPI PUSH2 0x8B8 SWAP1 CALLDATASIZE SWAP1 PUSH1 0x4 ADD PUSH2 0x1775 JUMP JUMPDEST SWAP4 PUSH1 0x1 DUP1 PUSH1 0xA0 SHL SUB PUSH1 0x0 SLOAD AND CALLER EQ DUP1 ISZERO PUSH2 0xC17 JUMPI JUMPDEST ISZERO PUSH2 0xBC7 JUMPI PUSH1 0xFF PUSH1 0x6 PUSH2 0x8EF PUSH1 0x20 DUP14 DUP2 PUSH1 0x40 MLOAD SWAP4 DUP3 DUP6 DUP1 SWAP5 MLOAD SWAP4 DUP5 SWAP3 ADD PUSH2 0x17CB JUMP JUMPDEST DUP2 ADD PUSH1 0x2 DUP2 MSTORE SUB ADD SWAP1 KECCAK256 ADD SLOAD AND PUSH2 0xB8B JUMPI PUSH2 0xA4A SWAP8 PUSH1 0x40 MLOAD SWAP4 PUSH2 0x911 DUP6 PUSH2 0x171D JUMP JUMPDEST DUP12 DUP6 MSTORE DUP11 PUSH1 0x20 DUP7 ADD MSTORE PUSH1 0x40 DUP6 ADD MSTORE PUSH1 0x60 DUP5 ADD MSTORE PUSH1 0x80 DUP4 ADD MSTORE PUSH1 0xA0 DUP3 ADD MSTORE PUSH1 0x1 PUSH1 0xC0 DUP3 ADD MSTORE PUSH1 0xC0 PUSH1 0x6 PUSH2 0x952 PUSH1 0x20 DUP12 DUP2 PUSH1 0x40 MLOAD SWAP4 DUP3 DUP6 DUP1 SWAP5 MLOAD SWAP4 DUP5 SWAP3 ADD PUSH2 0x17CB JUMP JUMPDEST DUP2 ADD PUSH1 0x2 DUP2 MSTORE SUB ADD SWAP1 KECCAK256 PUSH2 0x967 DUP5 MLOAD DUP3 PUSH2 0x194F JUMP JUMPDEST PUSH2 0x978 PUSH1 0x20 DUP6 ADD MLOAD PUSH1 0x1 DUP4 ADD PUSH2 0x194F JUMP JUMPDEST PUSH2 0x989 PUSH1 0x40 DUP6 ADD MLOAD PUSH1 0x2 DUP4 ADD PUSH2 0x194F JUMP JUMPDEST PUSH2 0x99A PUSH1 0x60 DUP6 ADD MLOAD PUSH1 0x3 DUP4 ADD PUSH2 0x194F JUMP JUMPDEST PUSH2 0x9AB PUSH1 0x80 DUP6 ADD MLOAD PUSH1 0x4 DUP4 ADD PUSH2 0x194F JUMP JUMPDEST PUSH2 0x9BC PUSH1 0xA0 DUP6 ADD MLOAD PUSH1 0x5 DUP4 ADD PUSH2 0x194F JUMP JUMPDEST ADD SWAP2 ADD MLOAD ISZERO ISZERO PUSH1 0xFF DUP1 NOT DUP4 SLOAD AND SWAP2 AND OR SWAP1 SSTORE PUSH1 0x40 MLOAD PUSH1 0x20 DUP2 DUP2 PUSH2 0x9E5 DUP12 DUP4 DUP2 MLOAD SWAP4 DUP5 SWAP3 ADD PUSH2 0x17CB JUMP JUMPDEST DUP2 ADD PUSH1 0x3 DUP2 MSTORE SUB ADD SWAP1 KECCAK256 SWAP3 PUSH1 0x40 MLOAD SWAP5 PUSH2 0x9FD DUP7 PUSH2 0x1738 JUMP JUMPDEST PUSH1 0xC4 CALLDATALOAD DUP7 MSTORE PUSH1 0xE4 CALLDATALOAD PUSH1 0x20 DUP8 ADD MSTORE PUSH1 0x40 DUP7 ADD MSTORE PUSH1 0x60 DUP6 ADD MSTORE PUSH2 0x144 CALLDATALOAD PUSH1 0x80 DUP6 ADD MSTORE PUSH2 0xA2D PUSH2 0x164 CALLDATALOAD PUSH1 0xA0 DUP7 ADD PUSH2 0x1A5E JUMP JUMPDEST PUSH1 0xC0 DUP5 ADD MSTORE PUSH1 0xE0 DUP4 ADD MSTORE TIMESTAMP PUSH2 0x100 DUP4 ADD MSTORE CALLER PUSH2 0x120 DUP4 ADD MSTORE PUSH2 0x1A86 JUMP JUMPDEST PUSH1 0x1 SLOAD SWAP2 DUP3 PUSH1 0x0 MSTORE PUSH1 0x6 PUSH1 0x20 MSTORE PUSH2 0xA65 DUP2 PUSH1 0x40 PUSH1 0x0 KECCAK256 PUSH2 0x194F JUMP JUMPDEST DUP3 PUSH1 0x40 MLOAD PUSH1 0x20 DUP2 DUP5 MLOAD PUSH2 0xA7B DUP2 DUP4 DUP6 DUP10 ADD PUSH2 0x17CB JUMP JUMPDEST DUP2 ADD PUSH1 0x7 DUP2 MSTORE SUB ADD SWAP1 KECCAK256 SSTORE DUP3 PUSH1 0x0 MSTORE PUSH1 0x8 PUSH1 0x20 MSTORE PUSH1 0x40 PUSH1 0x0 KECCAK256 CALLER PUSH12 0xFFFFFFFFFFFFFFFFFFFFFFFF PUSH1 0xA0 SHL DUP3 SLOAD AND OR SWAP1 SSTORE PUSH1 0x1 SLOAD PUSH1 0x0 NOT DUP2 EQ PUSH2 0x3B1 JUMPI PUSH1 0x1 ADD PUSH1 0x1 SSTORE PUSH1 0x5 SLOAD SWAP1 PUSH1 0x1 PUSH1 0x40 SHL DUP3 LT ISZERO PUSH2 0xB75 JUMPI PUSH1 0x1 DUP3 ADD DUP1 PUSH1 0x5 SSTORE DUP3 LT ISZERO PUSH2 0xB5F JUMPI PUSH2 0xB35 DUP2 PUSH2 0x637 PUSH2 0xB4A SWAP4 PUSH32 0x472B6F7ACD103A560DCA6EDF16CF1604A8E7FAE4C9483C8F4F13F74405CA002C SWAP6 PUSH1 0x5 PUSH1 0x0 MSTORE PUSH32 0x36B6384B5ECA791C62761152D0C79BB0604C104A5FB6F4EB0703F3154BB3DB0 ADD PUSH2 0x194F JUMP JUMPDEST SWAP3 PUSH1 0x40 MLOAD SWAP2 DUP3 SWAP2 PUSH1 0x40 DUP4 MSTORE PUSH1 0x40 DUP4 ADD SWAP1 PUSH2 0x17EE JUMP JUMPDEST PUSH2 0xB5A PUSH1 0x20 DUP4 ADD PUSH2 0x164 CALLDATALOAD PUSH2 0x1813 JUMP JUMPDEST SUB SWAP1 LOG3 STOP JUMPDEST PUSH4 0x4E487B71 PUSH1 0xE0 SHL PUSH1 0x0 MSTORE PUSH1 0x32 PUSH1 0x4 MSTORE PUSH1 0x24 PUSH1 0x0 REVERT JUMPDEST PUSH4 0x4E487B71 PUSH1 0xE0 SHL PUSH1 0x0 MSTORE PUSH1 0x41 PUSH1 0x4 MSTORE PUSH1 0x24 PUSH1 0x0 REVERT JUMPDEST PUSH1 0x40 MLOAD PUSH3 0x461BCD PUSH1 0xE5 SHL DUP2 MSTORE PUSH1 0x20 PUSH1 0x4 DUP3 ADD MSTORE PUSH1 0x14 PUSH1 0x24 DUP3 ADD MSTORE PUSH20 0x426174636820616C726561647920657869737473 PUSH1 0x60 SHL PUSH1 0x44 DUP3 ADD MSTORE PUSH1 0x64 SWAP1 REVERT JUMPDEST PUSH1 0x40 MLOAD PUSH3 0x461BCD PUSH1 0xE5 SHL DUP2 MSTORE PUSH1 0x20 PUSH1 0x4 DUP3 ADD MSTORE PUSH1 0x22 PUSH1 0x24 DUP3 ADD MSTORE PUSH32 0x4F6E6C79206661726D6572206F72206F776E65722063616E2063616C6C207468 PUSH1 0x44 DUP3 ADD MSTORE PUSH2 0x6973 PUSH1 0xF0 SHL PUSH1 0x64 DUP3 ADD MSTORE PUSH1 0x84 SWAP1 REVERT JUMPDEST POP CALLER PUSH1 0x0 MSTORE PUSH1 0x9 PUSH1 0x20 MSTORE PUSH1 0xFF PUSH1 0x40 PUSH1 0x0 KECCAK256 SLOAD AND PUSH2 0x8CD JUMP JUMPDEST CALLVALUE PUSH2 0x3C7 JUMPI PUSH1 0x20 CALLDATASIZE PUSH1 0x3 NOT ADD SLT PUSH2 0x3C7 JUMPI PUSH1 0x4 CALLDATALOAD PUSH1 0x1 PUSH1 0x1 PUSH1 0xA0 SHL SUB DUP2 AND SWAP1 DUP2 SWAP1 SUB PUSH2 0x3C7 JUMPI PUSH1 0x0 MSTORE PUSH1 0x9 PUSH1 0x20 MSTORE PUSH1 0x20 PUSH1 0xFF PUSH1 0x40 PUSH1 0x0 KECCAK256 SLOAD AND PUSH1 0x40 MLOAD SWAP1 ISZERO ISZERO DUP2 MSTORE RETURN JUMPDEST CALLVALUE PUSH2 0x3C7 JUMPI PUSH1 0x20 CALLDATASIZE PUSH1 0x3 NOT ADD SLT PUSH2 0x3C7 JUMPI PUSH1 0x20 PUSH1 0x4 CALLDATALOAD DUP1 PUSH1 0x0 MSTORE PUSH1 0x8 DUP3 MSTORE PUSH1 0x1 DUP1 PUSH1 0xA0 SHL SUB SWAP1 PUSH2 0xCAA DUP3 PUSH1 0x40 PUSH1 0x0 KECCAK256 SLOAD AND ISZERO ISZERO PUSH2 0x1D6A JUMP JUMPDEST PUSH1 0x0 MSTORE PUSH1 0x8 DUP3 MSTORE PUSH1 0x40 PUSH1 0x0 KECCAK256 SLOAD AND PUSH1 0x40 MLOAD SWAP1 DUP2 MSTORE RETURN JUMPDEST CALLVALUE PUSH2 0x3C7 JUMPI PUSH1 0x20 CALLDATASIZE PUSH1 0x3 NOT ADD SLT PUSH2 0x3C7 JUMPI PUSH1 0x4 CALLDATALOAD DUP1 PUSH1 0x0 MSTORE PUSH1 0x6 PUSH1 0x20 MSTORE PUSH2 0xCF5 PUSH2 0xCEE PUSH1 0x40 PUSH1 0x0 KECCAK256 SLOAD PUSH2 0x1915 JUMP JUMPDEST ISZERO ISZERO PUSH2 0x1D6A JUMP JUMPDEST PUSH1 0x0 MSTORE PUSH1 0x6 PUSH1 0x20 MSTORE PUSH2 0x397 PUSH2 0xD0D PUSH1 0x40 PUSH1 0x0 KECCAK256 PUSH2 0x1BD1 JUMP JUMPDEST PUSH1 0x40 MLOAD SWAP2 DUP3 SWAP2 PUSH1 0x20 DUP4 MSTORE PUSH1 0x20 DUP4 ADD SWAP1 PUSH2 0x17EE JUMP JUMPDEST CALLVALUE PUSH2 0x3C7 JUMPI PUSH1 0x0 CALLDATASIZE PUSH1 0x3 NOT ADD SLT PUSH2 0x3C7 JUMPI PUSH1 0x0 SLOAD PUSH1 0x40 MLOAD PUSH1 0x1 PUSH1 0x1 PUSH1 0xA0 SHL SUB SWAP1 SWAP2 AND DUP2 MSTORE PUSH1 0x20 SWAP1 RETURN JUMPDEST CALLVALUE PUSH2 0x3C7 JUMPI PUSH1 0x20 CALLDATASIZE PUSH1 0x3 NOT ADD SLT PUSH2 0x3C7 JUMPI PUSH1 0x4 CALLDATALOAD PUSH1 0x1 PUSH1 0x1 PUSH1 0xA0 SHL SUB DUP2 AND SWAP1 DUP2 SWAP1 SUB PUSH2 0x3C7 JUMPI PUSH1 0x0 MSTORE PUSH1 0xB PUSH1 0x20 MSTORE PUSH1 0x20 PUSH1 0xFF PUSH1 0x40 PUSH1 0x0 KECCAK256 SLOAD AND PUSH1 0x40 MLOAD SWAP1 ISZERO ISZERO DUP2 MSTORE RETURN JUMPDEST CALLVALUE PUSH2 0x3C7 JUMPI PUSH1 0x20 CALLDATASIZE PUSH1 0x3 NOT ADD SLT PUSH2 0x3C7 JUMPI PUSH1 0x4 CALLDATALOAD PUSH1 0x1 PUSH1 0x1 PUSH1 0xA0 SHL SUB DUP2 DUP2 AND SWAP2 DUP3 SWAP1 SUB PUSH2 0x3C7 JUMPI PUSH2 0xDC3 SWAP1 PUSH1 0x0 SLOAD AND CALLER EQ PUSH2 0x18C9 JUMP JUMPDEST DUP1 PUSH1 0x0 MSTORE PUSH1 0x9 PUSH1 0x20 MSTORE PUSH1 0x40 PUSH1 0x0 KECCAK256 PUSH1 0x1 PUSH1 0xFF NOT DUP3 SLOAD AND OR SWAP1 SSTORE PUSH32 0x2E0DED4123377A3C2BC9A26F1717655A129E2F20752924D42E730EC89C83DBD0 PUSH1 0x0 DUP1 LOG2 STOP JUMPDEST CALLVALUE PUSH2 0x3C7 JUMPI PUSH1 0x20 DUP1 PUSH1 0x3 NOT CALLDATASIZE ADD SLT PUSH2 0x3C7 JUMPI PUSH1 0x4 CALLDATALOAD PUSH1 0x1 PUSH1 0x1 PUSH1 0x40 SHL SUB DUP2 GT PUSH2 0x3C7 JUMPI PUSH2 0xE34 SWAP1 CALLDATASIZE SWAP1 PUSH1 0x4 ADD PUSH2 0x1775 JUMP JUMPDEST PUSH1 0x40 MLOAD DUP2 MLOAD SWAP3 PUSH2 0xE81 DUP2 DUP1 DUP6 ADD SWAP6 PUSH2 0xE4D DUP2 DUP7 DUP10 PUSH2 0x17CB JUMP JUMPDEST DUP5 ADD SWAP6 PUSH1 0x2 SWAP6 DUP7 DUP9 MSTORE PUSH2 0xE70 PUSH1 0xFF DUP1 SWAP10 DUP9 DUP7 PUSH1 0x6 SWAP11 DUP12 SWAP4 SUB ADD SWAP1 KECCAK256 ADD SLOAD AND PUSH2 0x1B8E JUMP JUMPDEST PUSH1 0x40 MLOAD SWAP4 DUP5 SWAP3 DUP4 SWAP3 MLOAD SWAP3 DUP4 SWAP2 PUSH2 0x17CB JUMP JUMPDEST DUP2 ADD PUSH1 0x4 DUP2 MSTORE SUB ADD SWAP1 KECCAK256 SWAP2 DUP3 SLOAD SWAP1 PUSH2 0xE98 DUP3 PUSH2 0x1D53 JUMP JUMPDEST SWAP5 PUSH2 0xEA6 PUSH1 0x40 MLOAD SWAP7 DUP8 PUSH2 0x1754 JUMP JUMPDEST DUP3 DUP7 MSTORE PUSH1 0x0 SWAP5 DUP6 MSTORE DUP4 DUP6 KECCAK256 DUP5 DUP8 ADD SWAP6 SWAP2 DUP7 JUMPDEST DUP6 DUP5 LT PUSH2 0xF8E JUMPI POP POP POP POP POP POP PUSH1 0x40 MLOAD SWAP3 DUP2 DUP5 ADD SWAP1 DUP3 DUP6 MSTORE MLOAD DUP1 SWAP2 MSTORE PUSH1 0x40 DUP5 ADD SWAP2 PUSH1 0x40 DUP3 PUSH1 0x5 SHL DUP7 ADD ADD SWAP4 SWAP3 PUSH1 0x0 SWAP7 JUMPDEST DUP4 DUP9 LT PUSH2 0xEF5 JUMPI DUP7 DUP7 SUB DUP8 RETURN JUMPDEST SWAP1 SWAP2 SWAP3 SWAP4 SWAP5 DUP4 DUP1 PUSH1 0x1 SWAP3 PUSH1 0x3F NOT DUP11 DUP3 SUB ADD DUP7 MSTORE DUP9 MLOAD SWAP1 PUSH2 0xF71 PUSH2 0xF5E PUSH2 0xF4B PUSH2 0xF39 PUSH2 0xF29 DUP7 MLOAD PUSH1 0xC0 DUP1 DUP9 MSTORE DUP8 ADD SWAP1 PUSH2 0x17EE JUMP JUMPDEST DUP8 DUP8 ADD MLOAD DUP7 DUP3 SUB DUP10 DUP9 ADD MSTORE PUSH2 0x17EE JUMP JUMPDEST PUSH1 0x40 DUP7 ADD MLOAD DUP6 DUP3 SUB PUSH1 0x40 DUP8 ADD MSTORE PUSH2 0x17EE JUMP JUMPDEST PUSH1 0x60 DUP1 DUP7 ADD MLOAD SWAP1 DUP6 DUP4 SUB SWAP1 DUP7 ADD MSTORE PUSH2 0x17EE JUMP JUMPDEST PUSH1 0x80 DUP1 DUP6 ADD MLOAD SWAP1 DUP5 DUP4 SUB SWAP1 DUP6 ADD MSTORE PUSH2 0x17EE JUMP JUMPDEST SWAP2 DUP7 PUSH1 0xA0 DUP1 SWAP3 ADD MLOAD AND SWAP2 ADD MSTORE SWAP8 ADD SWAP4 ADD SWAP8 ADD SWAP7 SWAP1 SWAP4 SWAP3 SWAP2 SWAP4 PUSH2 0xEE8 JUMP JUMPDEST DUP5 DUP8 PUSH1 0x1 SWAP3 PUSH1 0x40 SWAP12 SWAP10 SWAP12 MLOAD PUSH2 0xFA2 DUP2 PUSH2 0x1702 JUMP JUMPDEST PUSH2 0xFAB DUP8 PUSH2 0x1BD1 JUMP JUMPDEST DUP2 MSTORE PUSH2 0xFB8 DUP6 DUP9 ADD PUSH2 0x1BD1 JUMP JUMPDEST DUP4 DUP3 ADD MSTORE PUSH2 0xFC7 DUP7 DUP9 ADD PUSH2 0x1BD1 JUMP JUMPDEST PUSH1 0x40 DUP3 ADD MSTORE PUSH2 0xFD8 PUSH1 0x3 DUP9 ADD PUSH2 0x1BD1 JUMP JUMPDEST PUSH1 0x60 DUP3 ADD MSTORE PUSH2 0xFE9 PUSH1 0x4 DUP9 ADD PUSH2 0x1BD1 JUMP JUMPDEST PUSH1 0x80 DUP3 ADD MSTORE DUP14 PUSH1 0x5 DUP9 ADD SLOAD AND PUSH1 0xA0 DUP3 ADD MSTORE DUP2 MSTORE ADD SWAP4 ADD SWAP4 ADD SWAP3 SWAP2 SWAP8 SWAP6 SWAP8 PUSH2 0xEB8 JUMP JUMPDEST CALLVALUE PUSH2 0x3C7 JUMPI PUSH1 0x20 DUP1 PUSH1 0x3 NOT CALLDATASIZE ADD SLT PUSH2 0x3C7 JUMPI PUSH1 0x4 CALLDATALOAD PUSH1 0x1 PUSH1 0x1 PUSH1 0x40 SHL SUB DUP2 GT PUSH2 0x3C7 JUMPI DUP2 PUSH2 0x1040 PUSH2 0x105F SWAP3 CALLDATASIZE SWAP1 PUSH1 0x4 ADD PUSH2 0x1775 JUMP JUMPDEST PUSH1 0x40 MLOAD SWAP1 PUSH2 0xE70 PUSH1 0xFF PUSH1 0x6 DUP4 MLOAD SWAP5 DUP7 DUP2 DUP2 DUP8 ADD SWAP8 PUSH2 0x15D DUP2 DUP4 DUP12 PUSH2 0x17CB JUMP JUMPDEST DUP2 ADD PUSH1 0x3 DUP2 MSTORE SUB ADD SWAP1 KECCAK256 SWAP1 DUP2 SLOAD SWAP2 PUSH2 0x1076 DUP4 PUSH2 0x1D53 JUMP JUMPDEST SWAP3 PUSH2 0x1084 PUSH1 0x40 MLOAD SWAP5 DUP6 PUSH2 0x1754 JUMP JUMPDEST DUP1 DUP5 MSTORE DUP3 DUP5 ADD DUP1 SWAP3 PUSH1 0x0 MSTORE DUP4 PUSH1 0x0 KECCAK256 PUSH1 0x0 SWAP2 JUMPDEST DUP4 DUP4 LT PUSH2 0x10FE JUMPI POP POP POP POP PUSH1 0x40 MLOAD SWAP2 DUP1 DUP4 ADD SWAP4 DUP2 DUP5 MSTORE MLOAD DUP1 SWAP5 MSTORE PUSH1 0x40 DUP4 ADD SWAP4 PUSH1 0x40 DUP2 PUSH1 0x5 SHL DUP6 ADD ADD SWAP3 SWAP2 PUSH1 0x0 SWAP6 JUMPDEST DUP3 DUP8 LT PUSH2 0x10D2 JUMPI DUP6 DUP6 SUB DUP7 RETURN JUMPDEST SWAP1 SWAP2 SWAP3 SWAP4 DUP3 DUP1 PUSH2 0x10EE PUSH1 0x1 SWAP4 PUSH1 0x3F NOT DUP11 DUP3 SUB ADD DUP7 MSTORE DUP9 MLOAD PUSH2 0x1820 JUMP JUMPDEST SWAP7 ADD SWAP3 ADD SWAP7 ADD SWAP6 SWAP3 SWAP2 SWAP1 SWAP3 PUSH2 0x10C5 JUMP JUMPDEST PUSH1 0xA DUP7 PUSH1 0x1 SWAP3 PUSH2 0x1110 DUP6 SWAP11 SWAP10 SWAP11 PUSH2 0x1CB4 JUMP JUMPDEST DUP2 MSTORE ADD SWAP3 ADD SWAP3 ADD SWAP2 SWAP1 SWAP6 SWAP5 SWAP6 PUSH2 0x1097 JUMP JUMPDEST CALLVALUE PUSH2 0x3C7 JUMPI PUSH1 0x0 CALLDATASIZE PUSH1 0x3 NOT ADD SLT PUSH2 0x3C7 JUMPI PUSH1 0x20 PUSH1 0x40 MLOAD PUSH2 0x2710 DUP2 MSTORE RETURN JUMPDEST CALLVALUE PUSH2 0x3C7 JUMPI PUSH1 0x20 CALLDATASIZE PUSH1 0x3 NOT ADD SLT PUSH2 0x3C7 JUMPI PUSH1 0x4 CALLDATALOAD PUSH1 0x1 PUSH1 0x1 PUSH1 0xA0 SHL SUB DUP2 AND SWAP1 DUP2 SWAP1 SUB PUSH2 0x3C7 JUMPI PUSH1 0x0 MSTORE PUSH1 0xA PUSH1 0x20 MSTORE PUSH1 0x20 PUSH1 0xFF PUSH1 0x40 PUSH1 0x0 KECCAK256 SLOAD AND PUSH1 0x40 MLOAD SWAP1 ISZERO ISZERO DUP2 MSTORE RETURN JUMPDEST CALLVALUE PUSH2 0x3C7 JUMPI PUSH1 0xE0 CALLDATASIZE PUSH1 0x3 NOT ADD SLT PUSH2 0x3C7 JUMPI PUSH1 0x1 PUSH1 0x1 PUSH1 0x40 SHL SUB PUSH1 0x4 CALLDATALOAD DUP2 DUP2 GT PUSH2 0x3C7 JUMPI PUSH2 0x11B2 SWAP1 CALLDATASIZE SWAP1 PUSH1 0x4 ADD PUSH2 0x1775 JUMP JUMPDEST SWAP1 PUSH1 0x24 CALLDATALOAD DUP2 DUP2 GT PUSH2 0x3C7 JUMPI PUSH2 0x11CB SWAP1 CALLDATASIZE SWAP1 PUSH1 0x4 ADD PUSH2 0x1775 JUMP JUMPDEST PUSH1 0x44 CALLDATALOAD DUP3 DUP2 GT PUSH2 0x3C7 JUMPI PUSH2 0x11E3 SWAP1 CALLDATASIZE SWAP1 PUSH1 0x4 ADD PUSH2 0x1775 JUMP JUMPDEST SWAP2 PUSH1 0x64 CALLDATALOAD DUP2 DUP2 GT PUSH2 0x3C7 JUMPI PUSH2 0x11FC SWAP1 CALLDATASIZE SWAP1 PUSH1 0x4 ADD PUSH2 0x1775 JUMP JUMPDEST SWAP4 PUSH1 0x84 CALLDATALOAD DUP3 DUP2 GT PUSH2 0x3C7 JUMPI PUSH2 0x1215 SWAP1 CALLDATASIZE SWAP1 PUSH1 0x4 ADD PUSH2 0x1775 JUMP JUMPDEST SWAP2 PUSH1 0xA4 CALLDATALOAD SWAP1 DUP2 GT PUSH2 0x3C7 JUMPI PUSH2 0x122E SWAP1 CALLDATASIZE SWAP1 PUSH1 0x4 ADD PUSH2 0x1775 JUMP JUMPDEST PUSH1 0xC4 CALLDATALOAD SWAP1 PUSH1 0xFF DUP3 AND DUP1 SWAP3 SUB PUSH2 0x3C7 JUMPI PUSH1 0x0 SLOAD PUSH1 0x1 PUSH1 0x1 PUSH1 0xA0 SHL SUB AND CALLER EQ DUP1 ISZERO PUSH2 0x13E6 JUMPI JUMPDEST ISZERO PUSH2 0x138D JUMPI PUSH1 0x6 SWAP7 PUSH2 0x128E PUSH1 0x40 MLOAD DUP6 MLOAD PUSH2 0x127D PUSH1 0xFF PUSH1 0x20 SWAP13 DUP5 DUP15 DUP1 SWAP7 DUP2 DUP14 ADD SWAP7 PUSH2 0x15D DUP2 DUP4 DUP11 PUSH2 0x17CB JUMP JUMPDEST PUSH1 0x40 MLOAD DUP1 SWAP4 DUP2 SWAP3 DUP10 MLOAD SWAP3 DUP4 SWAP2 PUSH2 0x17CB JUMP JUMPDEST DUP2 ADD PUSH1 0x4 DUP2 MSTORE SUB ADD SWAP1 KECCAK256 PUSH1 0x40 MLOAD SWAP1 PUSH2 0x12A5 DUP3 PUSH2 0x1702 JUMP JUMPDEST DUP8 DUP3 MSTORE DUP10 DUP3 ADD SWAP9 DUP10 MSTORE PUSH1 0x40 DUP3 ADD SWAP3 DUP4 MSTORE PUSH1 0x60 DUP3 ADD SWAP7 DUP8 MSTORE PUSH1 0x80 DUP3 ADD SWAP4 DUP5 MSTORE PUSH1 0xA0 DUP3 ADD SWAP5 DUP6 MSTORE DUP1 SLOAD SWAP4 PUSH1 0x1 PUSH1 0x40 SHL DUP6 LT ISZERO PUSH2 0xB75 JUMPI PUSH1 0x1 DUP6 ADD DUP1 DUP4 SSTORE DUP6 LT ISZERO PUSH2 0xB5F JUMPI PUSH2 0x1357 PUSH2 0x1373 SWAP9 PUSH2 0x134D PUSH1 0x5 SWAP7 PUSH2 0x1343 DUP16 SWAP15 PUSH32 0x89B67F9499D4EBCCE6E17C7E8FA6444CCA5A12771A786407B9C287D09B200377 SWAP16 PUSH1 0xFF SWAP12 PUSH1 0x6 PUSH2 0x1339 SWAP3 PUSH2 0x1361 SWAP12 PUSH1 0x0 MSTORE PUSH1 0x0 KECCAK256 SWAP2 MUL ADD SWAP10 MLOAD DUP11 PUSH2 0x194F JUMP JUMPDEST MLOAD PUSH1 0x1 DUP10 ADD PUSH2 0x194F JUMP JUMPDEST MLOAD PUSH1 0x2 DUP8 ADD PUSH2 0x194F JUMP JUMPDEST MLOAD PUSH1 0x3 DUP6 ADD PUSH2 0x194F JUMP JUMPDEST MLOAD PUSH1 0x4 DUP4 ADD PUSH2 0x194F JUMP JUMPDEST ADD SWAP2 MLOAD AND PUSH1 0xFF NOT DUP3 SLOAD AND OR SWAP1 SSTORE PUSH2 0x1B6E JUMP JUMPDEST SWAP3 PUSH2 0x1388 PUSH1 0x40 MLOAD SWAP3 DUP3 DUP5 SWAP4 DUP5 MSTORE DUP4 ADD SWAP1 PUSH2 0x17EE JUMP JUMPDEST SUB SWAP1 LOG2 STOP JUMPDEST PUSH1 0x40 MLOAD PUSH3 0x461BCD PUSH1 0xE5 SHL DUP2 MSTORE PUSH1 0x20 PUSH1 0x4 DUP3 ADD MSTORE PUSH1 0x2B PUSH1 0x24 DUP3 ADD MSTORE PUSH32 0x4F6E6C79206C6F67697374696373206163746F72206F72206F776E6572206361 PUSH1 0x44 DUP3 ADD MSTORE PUSH11 0x6E2063616C6C2074686973 PUSH1 0xA8 SHL PUSH1 0x64 DUP3 ADD MSTORE PUSH1 0x84 SWAP1 REVERT JUMPDEST POP CALLER PUSH1 0x0 MSTORE PUSH1 0xB PUSH1 0x20 MSTORE PUSH1 0xFF PUSH1 0x40 PUSH1 0x0 KECCAK256 SLOAD AND PUSH2 0x1252 JUMP JUMPDEST CALLVALUE PUSH2 0x3C7 JUMPI PUSH1 0x0 CALLDATASIZE PUSH1 0x3 NOT ADD SLT PUSH2 0x3C7 JUMPI PUSH1 0x5 SLOAD PUSH2 0x141B DUP2 PUSH2 0x1D53 JUMP JUMPDEST SWAP1 PUSH2 0x1429 PUSH1 0x40 MLOAD SWAP3 DUP4 PUSH2 0x1754 JUMP JUMPDEST DUP1 DUP3 MSTORE PUSH1 0x20 SWAP1 DUP2 DUP4 ADD SWAP1 DUP2 PUSH1 0x5 PUSH1 0x0 MSTORE PUSH32 0x36B6384B5ECA791C62761152D0C79BB0604C104A5FB6F4EB0703F3154BB3DB0 PUSH1 0x0 SWAP2 JUMPDEST DUP4 DUP4 LT PUSH2 0x14C5 JUMPI POP POP POP POP PUSH1 0x40 MLOAD SWAP2 DUP1 DUP4 ADD SWAP4 DUP2 DUP5 MSTORE MLOAD DUP1 SWAP5 MSTORE PUSH1 0x40 DUP4 ADD SWAP4 PUSH1 0x40 DUP2 PUSH1 0x5 SHL DUP6 ADD ADD SWAP3 SWAP2 PUSH1 0x0 SWAP6 JUMPDEST DUP3 DUP8 LT PUSH2 0x1499 JUMPI DUP6 DUP6 SUB DUP7 RETURN JUMPDEST SWAP1 SWAP2 SWAP3 SWAP4 DUP3 DUP1 PUSH2 0x14B5 PUSH1 0x1 SWAP4 PUSH1 0x3F NOT DUP11 DUP3 SUB ADD DUP7 MSTORE DUP9 MLOAD PUSH2 0x17EE JUMP JUMPDEST SWAP7 ADD SWAP3 ADD SWAP7 ADD SWAP6 SWAP3 SWAP2 SWAP1 SWAP3 PUSH2 0x148C JUMP JUMPDEST PUSH1 0x1 DUP7 DUP2 SWAP3 PUSH2 0x14D6 DUP6 SWAP11 SWAP10 SWAP11 PUSH2 0x1BD1 JUMP JUMPDEST DUP2 MSTORE ADD SWAP3 ADD SWAP3 ADD SWAP2 SWAP1 SWAP6 SWAP5 SWAP6 PUSH2 0x145E JUMP JUMPDEST CALLVALUE PUSH2 0x3C7 JUMPI PUSH1 0x20 CALLDATASIZE PUSH1 0x3 NOT ADD SLT PUSH2 0x3C7 JUMPI PUSH1 0x4 CALLDATALOAD PUSH1 0x1 PUSH1 0x1 PUSH1 0xA0 SHL SUB DUP2 DUP2 AND SWAP2 DUP3 SWAP1 SUB PUSH2 0x3C7 JUMPI PUSH2 0x151D SWAP1 PUSH1 0x0 SLOAD AND CALLER EQ PUSH2 0x18C9 JUMP JUMPDEST DUP1 PUSH1 0x0 MSTORE PUSH1 0xA PUSH1 0x20 MSTORE PUSH1 0x40 PUSH1 0x0 KECCAK256 PUSH1 0x1 PUSH1 0xFF NOT DUP3 SLOAD AND OR SWAP1 SSTORE PUSH32 0xCBCED5FEE1E31AA2167A435050F7DC7ED5DE6D603CCE2B5D547AE365AE3632E PUSH1 0x0 DUP1 LOG2 STOP JUMPDEST CALLVALUE PUSH2 0x3C7 JUMPI PUSH1 0x20 DUP1 PUSH1 0x3 NOT CALLDATASIZE ADD SLT PUSH2 0x3C7 JUMPI PUSH1 0x4 CALLDATALOAD PUSH1 0x1 PUSH1 0x1 PUSH1 0x40 SHL SUB DUP2 GT PUSH2 0x3C7 JUMPI PUSH2 0x158E SWAP1 CALLDATASIZE SWAP1 PUSH1 0x4 ADD PUSH2 0x1775 JUMP JUMPDEST PUSH1 0x40 MLOAD SWAP1 DUP1 MLOAD SWAP2 DUP4 DUP2 DUP2 DUP5 ADD SWAP5 PUSH2 0x15A6 DUP2 DUP4 DUP9 PUSH2 0x17CB JUMP JUMPDEST DUP2 ADD PUSH1 0x7 DUP2 MSTORE SUB ADD SWAP1 KECCAK256 SLOAD ISZERO PUSH2 0x15E0 JUMPI PUSH2 0x15CD SWAP2 DUP4 SWAP2 PUSH1 0x40 MLOAD SWAP4 DUP5 SWAP3 DUP4 SWAP3 MLOAD SWAP3 DUP4 SWAP2 PUSH2 0x17CB JUMP JUMPDEST DUP2 ADD PUSH1 0x7 DUP2 MSTORE SUB ADD SWAP1 KECCAK256 SLOAD PUSH1 0x40 MLOAD SWAP1 DUP2 MSTORE RETURN JUMPDEST PUSH1 0x40 MLOAD PUSH3 0x461BCD PUSH1 0xE5 SHL DUP2 MSTORE PUSH1 0x4 DUP2 ADD DUP5 SWAP1 MSTORE PUSH1 0x14 PUSH1 0x24 DUP3 ADD MSTORE PUSH20 0x10985D18DA081B9BDD081C9959DA5CDD195C9959 PUSH1 0x62 SHL PUSH1 0x44 DUP3 ADD MSTORE PUSH1 0x64 SWAP1 REVERT JUMPDEST CALLVALUE PUSH2 0x3C7 JUMPI PUSH1 0x20 CALLDATASIZE PUSH1 0x3 NOT ADD SLT PUSH2 0x3C7 JUMPI PUSH1 0x4 CALLDATALOAD PUSH1 0x1 PUSH1 0x1 PUSH1 0xA0 SHL SUB DUP2 DUP2 AND SWAP2 DUP3 SWAP1 SUB PUSH2 0x3C7 JUMPI PUSH2 0x1652 SWAP1 PUSH1 0x0 SLOAD AND CALLER EQ PUSH2 0x18C9 JUMP JUMPDEST DUP1 PUSH1 0x0 MSTORE PUSH1 0xA PUSH1 0x20 MSTORE PUSH1 0x40 PUSH1 0x0 KECCAK256 PUSH1 0xFF NOT DUP2 SLOAD AND SWAP1 SSTORE PUSH32 0xA04C1585BB4AA71BAB84CFCC9A7D7ACCF0EEAE3778B33AEC8483B354B1EF9E21 PUSH1 0x0 DUP1 LOG2 STOP JUMPDEST CALLVALUE PUSH2 0x3C7 JUMPI PUSH1 0x20 CALLDATASIZE PUSH1 0x3 NOT ADD SLT PUSH2 0x3C7 JUMPI PUSH1 0x4 CALLDATALOAD PUSH1 0x1 PUSH1 0x1 PUSH1 0xA0 SHL SUB DUP2 DUP2 AND SWAP2 DUP3 SWAP1 SUB PUSH2 0x3C7 JUMPI PUSH2 0x16C5 SWAP1 PUSH1 0x0 SLOAD AND CALLER EQ PUSH2 0x18C9 JUMP JUMPDEST DUP1 PUSH1 0x0 MSTORE PUSH1 0xB PUSH1 0x20 MSTORE PUSH1 0x40 PUSH1 0x0 KECCAK256 PUSH1 0xFF NOT DUP2 SLOAD AND SWAP1 SSTORE PUSH32 0xCA7C1DFC3EE1F412EB8E70C7580ED5594F0EC4A03F4B4AA7674B066FB7F705AC PUSH1 0x0 DUP1 LOG2 STOP JUMPDEST PUSH1 0xC0 DUP2 ADD SWAP1 DUP2 LT PUSH1 0x1 PUSH1 0x1 PUSH1 0x40 SHL SUB DUP3 GT OR PUSH2 0xB75 JUMPI PUSH1 0x40 MSTORE JUMP JUMPDEST PUSH1 0xE0 DUP2 ADD SWAP1 DUP2 LT PUSH1 0x1 PUSH1 0x1 PUSH1 0x40 SHL SUB DUP3 GT OR PUSH2 0xB75 JUMPI PUSH1 0x40 MSTORE JUMP JUMPDEST PUSH2 0x140 DUP2 ADD SWAP1 DUP2 LT PUSH1 0x1 PUSH1 0x1 PUSH1 0x40 SHL SUB DUP3 GT OR PUSH2 0xB75 JUMPI PUSH1 0x40 MSTORE JUMP JUMPDEST SWAP1 PUSH1 0x1F DUP1 NOT SWAP2 ADD AND DUP2 ADD SWAP1 DUP2 LT PUSH1 0x1 PUSH1 0x1 PUSH1 0x40 SHL SUB DUP3 GT OR PUSH2 0xB75 JUMPI PUSH1 0x40 MSTORE JUMP JUMPDEST DUP2 PUSH1 0x1F DUP3 ADD SLT ISZERO PUSH2 0x3C7 JUMPI DUP1 CALLDATALOAD SWAP1 PUSH1 0x1 PUSH1 0x1 PUSH1 0x40 SHL SUB DUP3 GT PUSH2 0xB75 JUMPI PUSH1 0x40 MLOAD SWAP3 PUSH2 0x17A9 PUSH1 0x1F DUP5 ADD PUSH1 0x1F NOT AND PUSH1 0x20 ADD DUP6 PUSH2 0x1754 JUMP JUMPDEST DUP3 DUP5 MSTORE PUSH1 0x20 DUP4 DUP4 ADD ADD GT PUSH2 0x3C7 JUMPI DUP2 PUSH1 0x0 SWAP3 PUSH1 0x20 DUP1 SWAP4 ADD DUP4 DUP7 ADD CALLDATACOPY DUP4 ADD ADD MSTORE SWAP1 JUMP JUMPDEST PUSH1 0x0 JUMPDEST DUP4 DUP2 LT PUSH2 0x17DE JUMPI POP POP PUSH1 0x0 SWAP2 ADD MSTORE JUMP JUMPDEST DUP2 DUP2 ADD MLOAD DUP4 DUP3 ADD MSTORE PUSH1 0x20 ADD PUSH2 0x17CE JUMP JUMPDEST SWAP1 PUSH1 0x20 SWAP2 PUSH2 0x1807 DUP2 MLOAD DUP1 SWAP3 DUP2 DUP6 MSTORE DUP6 DUP1 DUP7 ADD SWAP2 ADD PUSH2 0x17CB JUMP JUMPDEST PUSH1 0x1F ADD PUSH1 0x1F NOT AND ADD ADD SWAP1 JUMP JUMPDEST SWAP1 PUSH1 0x3 DUP3 LT ISZERO PUSH2 0x39B JUMPI MSTORE JUMP JUMPDEST SWAP1 DUP2 MLOAD DUP2 MSTORE PUSH1 0x20 DUP3 ADD MLOAD PUSH1 0x20 DUP3 ADD MSTORE PUSH2 0x18A3 PUSH2 0x1891 PUSH2 0x1863 PUSH2 0x1851 PUSH1 0x40 DUP7 ADD MLOAD PUSH2 0x140 DUP1 PUSH1 0x40 DUP9 ADD MSTORE DUP7 ADD SWAP1 PUSH2 0x17EE JUMP JUMPDEST PUSH1 0x60 DUP7 ADD MLOAD DUP6 DUP3 SUB PUSH1 0x60 DUP8 ADD MSTORE PUSH2 0x17EE JUMP JUMPDEST PUSH1 0x80 DUP6 ADD MLOAD PUSH1 0x80 DUP6 ADD MSTORE PUSH2 0x187F PUSH1 0xA0 DUP7 ADD MLOAD PUSH1 0xA0 DUP7 ADD SWAP1 PUSH2 0x1813 JUMP JUMPDEST PUSH1 0xC0 DUP6 ADD MLOAD DUP5 DUP3 SUB PUSH1 0xC0 DUP7 ADD MSTORE PUSH2 0x17EE JUMP JUMPDEST PUSH1 0xE0 DUP5 ADD MLOAD DUP4 DUP3 SUB PUSH1 0xE0 DUP6 ADD MSTORE PUSH2 0x17EE JUMP JUMPDEST PUSH2 0x100 DUP1 DUP5 ADD MLOAD SWAP1 DUP4 ADD MSTORE PUSH2 0x120 SWAP3 DUP4 ADD MLOAD PUSH1 0x1 PUSH1 0x1 PUSH1 0xA0 SHL SUB AND SWAP3 SWAP1 SWAP2 ADD SWAP2 SWAP1 SWAP2 MSTORE SWAP1 JUMP JUMPDEST ISZERO PUSH2 0x18D0 JUMPI JUMP JUMPDEST PUSH1 0x40 MLOAD PUSH3 0x461BCD PUSH1 0xE5 SHL DUP2 MSTORE PUSH1 0x20 PUSH1 0x4 DUP3 ADD MSTORE PUSH1 0x18 PUSH1 0x24 DUP3 ADD MSTORE PUSH32 0x4F6E6C79206F776E65722063616E2063616C6C20746869730000000000000000 PUSH1 0x44 DUP3 ADD MSTORE PUSH1 0x64 SWAP1 REVERT JUMPDEST SWAP1 PUSH1 0x1 DUP3 DUP2 SHR SWAP3 AND DUP1 ISZERO PUSH2 0x1945 JUMPI JUMPDEST PUSH1 0x20 DUP4 LT EQ PUSH2 0x192F JUMPI JUMP JUMPDEST PUSH4 0x4E487B71 PUSH1 0xE0 SHL PUSH1 0x0 MSTORE PUSH1 0x22 PUSH1 0x4 MSTORE PUSH1 0x24 PUSH1 0x0 REVERT JUMPDEST SWAP2 PUSH1 0x7F AND SWAP2 PUSH2 0x1924 JUMP JUMPDEST SWAP2 SWAP1 SWAP2 DUP3 MLOAD PUSH1 0x1 PUSH1 0x1 PUSH1 0x40 SHL SUB DUP2 GT PUSH2 0xB75 JUMPI PUSH2 0x196C DUP3 SLOAD PUSH2 0x1915 JUMP JUMPDEST PUSH1 0x1F DUP2 GT PUSH2 0x1A16 JUMPI JUMPDEST POP PUSH1 0x20 DUP1 PUSH1 0x1F DUP4 GT PUSH1 0x1 EQ PUSH2 0x19B2 JUMPI POP DUP2 SWAP3 SWAP4 SWAP5 PUSH1 0x0 SWAP3 PUSH2 0x19A7 JUMPI JUMPDEST POP POP DUP2 PUSH1 0x1 SHL SWAP2 PUSH1 0x0 NOT SWAP1 PUSH1 0x3 SHL SHR NOT AND OR SWAP1 SSTORE JUMP JUMPDEST ADD MLOAD SWAP1 POP CODESIZE DUP1 PUSH2 0x1991 JUMP JUMPDEST SWAP1 PUSH1 0x1F NOT DUP4 AND SWAP6 DUP5 PUSH1 0x0 MSTORE DUP3 PUSH1 0x0 KECCAK256 SWAP3 PUSH1 0x0 SWAP1 JUMPDEST DUP9 DUP3 LT PUSH2 0x19FE JUMPI POP POP DUP4 PUSH1 0x1 SWAP6 SWAP7 SWAP8 LT PUSH2 0x19E5 JUMPI JUMPDEST POP POP POP DUP2 SHL ADD SWAP1 SSTORE JUMP JUMPDEST ADD MLOAD PUSH1 0x0 NOT PUSH1 0xF8 DUP5 PUSH1 0x3 SHL AND SHR NOT AND SWAP1 SSTORE CODESIZE DUP1 DUP1 PUSH2 0x19DB JUMP JUMPDEST DUP1 PUSH1 0x1 DUP6 SWAP7 DUP3 SWAP5 SWAP7 DUP7 ADD MLOAD DUP2 SSTORE ADD SWAP6 ADD SWAP4 ADD SWAP1 PUSH2 0x19C6 JUMP JUMPDEST PUSH1 0x0 DUP4 DUP2 MSTORE PUSH1 0x20 DUP2 KECCAK256 PUSH1 0x1F DUP5 ADD PUSH1 0x5 SHR DUP2 ADD SWAP3 PUSH1 0x20 DUP6 LT PUSH2 0x1A54 JUMPI JUMPDEST PUSH1 0x1F ADD PUSH1 0x5 SHR ADD SWAP2 JUMPDEST DUP3 DUP2 LT PUSH2 0x1A49 JUMPI POP POP PUSH2 0x1975 JUMP JUMPDEST DUP2 DUP2 SSTORE PUSH1 0x1 ADD PUSH2 0x1A3B JUMP JUMPDEST SWAP1 SWAP3 POP DUP3 SWAP1 PUSH2 0x1A32 JUMP JUMPDEST PUSH1 0x3 DUP3 LT ISZERO PUSH2 0x39B JUMPI MSTORE JUMP JUMPDEST DUP1 SLOAD DUP3 LT ISZERO PUSH2 0xB5F JUMPI PUSH1 0x0 MSTORE PUSH1 0xA PUSH1 0x20 PUSH1 0x0 KECCAK256 SWAP2 MUL ADD SWAP1 PUSH1 0x0 SWAP1 JUMP JUMPDEST DUP1 SLOAD PUSH1 0x1 PUSH1 0x40 SHL DUP2 LT ISZERO PUSH2 0xB75 JUMPI PUSH2 0x1AA3 SWAP2 PUSH1 0x1 DUP3 ADD DUP2 SSTORE PUSH2 0x1A6A JUMP JUMPDEST PUSH2 0x1B58 JUMPI DUP2 MLOAD DUP2 SSTORE PUSH1 0x20 DUP3 ADD MLOAD PUSH1 0x1 DUP3 ADD SSTORE PUSH2 0x1AC6 PUSH1 0x40 DUP4 ADD MLOAD PUSH1 0x2 DUP4 ADD PUSH2 0x194F JUMP JUMPDEST PUSH2 0x1AD7 PUSH1 0x60 DUP4 ADD MLOAD PUSH1 0x3 DUP4 ADD PUSH2 0x194F JUMP JUMPDEST PUSH1 0x80 DUP3 ADD MLOAD PUSH1 0x4 DUP3 ADD SSTORE PUSH1 0xA0 DUP3 ADD MLOAD SWAP1 PUSH1 0x5 DUP2 ADD PUSH1 0x3 DUP4 LT ISZERO PUSH2 0x39B JUMPI PUSH1 0x9 SWAP3 PUSH1 0xFF DUP1 NOT DUP4 SLOAD AND SWAP2 AND OR SWAP1 SSTORE PUSH2 0x1B14 PUSH1 0xC0 DUP5 ADD MLOAD PUSH1 0x6 DUP4 ADD PUSH2 0x194F JUMP JUMPDEST PUSH2 0x1B25 PUSH1 0xE0 DUP5 ADD MLOAD PUSH1 0x7 DUP4 ADD PUSH2 0x194F JUMP JUMPDEST PUSH2 0x100 DUP4 ADD MLOAD PUSH1 0x8 DUP3 ADD SSTORE ADD SWAP1 PUSH2 0x120 PUSH1 0x1 DUP1 PUSH1 0xA0 SHL SUB SWAP2 ADD MLOAD AND PUSH12 0xFFFFFFFFFFFFFFFFFFFFFFFF PUSH1 0xA0 SHL DUP3 SLOAD AND OR SWAP1 SSTORE JUMP JUMPDEST PUSH4 0x4E487B71 PUSH1 0xE0 SHL PUSH1 0x0 MSTORE PUSH1 0x0 PUSH1 0x4 MSTORE PUSH1 0x24 PUSH1 0x0 REVERT JUMPDEST PUSH2 0x1B86 SWAP1 PUSH1 0x20 PUSH1 0x40 MLOAD SWAP3 DUP3 DUP5 DUP1 SWAP5 MLOAD SWAP4 DUP5 SWAP3 ADD PUSH2 0x17CB JUMP JUMPDEST DUP2 ADD SUB SWAP1 KECCAK256 SWAP1 JUMP JUMPDEST ISZERO PUSH2 0x1B95 JUMPI JUMP JUMPDEST PUSH1 0x40 MLOAD PUSH3 0x461BCD PUSH1 0xE5 SHL DUP2 MSTORE PUSH1 0x20 PUSH1 0x4 DUP3 ADD MSTORE PUSH1 0x14 PUSH1 0x24 DUP3 ADD MSTORE PUSH20 0x10985D18DA08191BD95CC81B9BDD08195E1A5CDD PUSH1 0x62 SHL PUSH1 0x44 DUP3 ADD MSTORE PUSH1 0x64 SWAP1 REVERT JUMPDEST SWAP1 PUSH1 0x40 MLOAD SWAP2 DUP3 PUSH1 0x0 DUP3 SLOAD SWAP3 PUSH2 0x1BE5 DUP5 PUSH2 0x1915 JUMP JUMPDEST SWAP1 DUP2 DUP5 MSTORE PUSH1 0x1 SWAP5 DUP6 DUP2 AND SWAP1 DUP2 PUSH1 0x0 EQ PUSH2 0x1C54 JUMPI POP PUSH1 0x1 EQ PUSH2 0x1C11 JUMPI JUMPDEST POP POP PUSH2 0x1C0F SWAP3 POP SUB DUP4 PUSH2 0x1754 JUMP JUMPDEST JUMP JUMPDEST SWAP1 SWAP4 SWAP2 POP PUSH1 0x0 MSTORE PUSH1 0x20 SWAP1 DUP2 PUSH1 0x0 KECCAK256 SWAP4 PUSH1 0x0 SWAP2 JUMPDEST DUP2 DUP4 LT PUSH2 0x1C3C JUMPI POP POP PUSH2 0x1C0F SWAP4 POP DUP3 ADD ADD CODESIZE DUP1 PUSH2 0x1C01 JUMP JUMPDEST DUP6 SLOAD DUP9 DUP5 ADD DUP6 ADD MSTORE SWAP5 DUP6 ADD SWAP5 DUP8 SWAP5 POP SWAP2 DUP4 ADD SWAP2 PUSH2 0x1C24 JUMP JUMPDEST SWAP2 POP POP PUSH2 0x1C0F SWAP5 POP PUSH1 0x20 SWAP3 POP PUSH1 0xFF NOT AND DUP3 DUP5 ADD MSTORE ISZERO ISZERO PUSH1 0x5 SHL DUP3 ADD ADD CODESIZE DUP1 PUSH2 0x1C01 JUMP JUMPDEST ISZERO PUSH2 0x1C7E JUMPI JUMP JUMPDEST PUSH1 0x40 MLOAD PUSH3 0x461BCD PUSH1 0xE5 SHL DUP2 MSTORE PUSH1 0x20 PUSH1 0x4 DUP3 ADD MSTORE PUSH1 0xE PUSH1 0x24 DUP3 ADD MSTORE PUSH14 0x4E6F206C6162207265706F727473 PUSH1 0x90 SHL PUSH1 0x44 DUP3 ADD MSTORE PUSH1 0x64 SWAP1 REVERT JUMPDEST SWAP1 PUSH1 0x40 MLOAD PUSH2 0x1CC1 DUP2 PUSH2 0x1738 JUMP JUMPDEST PUSH2 0x120 DUP2 SWAP4 DUP1 SLOAD DUP4 MSTORE PUSH1 0x1 DUP2 ADD SLOAD PUSH1 0x20 DUP5 ADD MSTORE PUSH2 0x1CE0 PUSH1 0x2 DUP3 ADD PUSH2 0x1BD1 JUMP JUMPDEST PUSH1 0x40 DUP5 ADD MSTORE PUSH2 0x1CF1 PUSH1 0x3 DUP3 ADD PUSH2 0x1BD1 JUMP JUMPDEST PUSH1 0x60 DUP5 ADD MSTORE PUSH1 0x4 DUP2 ADD SLOAD PUSH1 0x80 DUP5 ADD MSTORE PUSH2 0x1D14 PUSH1 0xFF PUSH1 0x5 DUP4 ADD SLOAD AND PUSH1 0xA0 DUP6 ADD PUSH2 0x1A5E JUMP JUMPDEST PUSH2 0x1D20 PUSH1 0x6 DUP3 ADD PUSH2 0x1BD1 JUMP JUMPDEST PUSH1 0xC0 DUP5 ADD MSTORE PUSH2 0x1D31 PUSH1 0x7 DUP3 ADD PUSH2 0x1BD1 JUMP JUMPDEST PUSH1 0xE0 DUP5 ADD MSTORE PUSH1 0x8 DUP2 ADD SLOAD PUSH2 0x100 DUP5 ADD MSTORE PUSH1 0x9 ADD SLOAD PUSH1 0x1 PUSH1 0x1 PUSH1 0xA0 SHL SUB AND SWAP2 ADD MSTORE JUMP JUMPDEST PUSH1 0x1 PUSH1 0x1 PUSH1 0x40 SHL SUB DUP2 GT PUSH2 0xB75 JUMPI PUSH1 0x5 SHL PUSH1 0x20 ADD SWAP1 JUMP JUMPDEST ISZERO PUSH2 0x1D71 JUMPI JUMP JUMPDEST PUSH1 0x40 MLOAD PUSH3 0x461BCD PUSH1 0xE5 SHL DUP2 MSTORE PUSH1 0x20 PUSH1 0x4 DUP3 ADD MSTORE PUSH1 0x17 PUSH1 0x24 DUP3 ADD MSTORE PUSH32 0x546F6B656E204944206E6F742072656769737465726564000000000000000000 PUSH1 0x44 DUP3 ADD MSTORE PUSH1 0x64 SWAP1 REVERT INVALID LOG2 PUSH5 0x6970667358 0x22 SLT KECCAK256 DUP2 0x24 SLOAD 0x4E ADD SELFDESTRUCT AND 0x2B LT PUSH27 0x6788E80962522269BA412B213B8F87E80F5023ACEC8164736F6C63 NUMBER STOP ADDMOD EQ STOP CALLER "},"methodIdentifiers":{"PPM_SCALE()":"64cc51ff","addFarmer(address)":"80c3f96d","addLab(address)":"3aa78723","addLogistics(address)":"dc576e49","addTimelineEvent(string,string,string,string,string,string,uint8)":"5c30b61b","getBatch(string)":"f9ca4274","getBatchIdByTokenId(uint256)":"a08550a2","getBatchIds()":"462190b1","getLabReportHistory(string)":"7969d39e","getLatestLabReport(string)":"d5a0cc01","getRegistrant(uint256)":"a9357452","getTimeline(string)":"7ed2253c","getTokenIdByBatchId(string)":"2c23b26e","isFarmer(address)":"b9429069","isLab(address)":"5e390880","isLogistics(address)":"8305866f","owner()":"8da5cb5b","registerBatch(string,string,string,string,string,string,uint256,uint256,string,string,uint256,uint8,string,string)":"ba43a445","removeFarmer(address)":"e6bf3fdc","removeLab(address)":"163e8aa2","removeLogistics(address)":"10c3a2fb","updateLabReport(string,uint256,uint256,string,string,uint256,uint8,string,string)":"d8be9e46"}}}}}