{
  "_format": "hh-sol-artifact-1",
  "contractName": "DurianTrust",
  "sourceName": "contracts/DurianTrust.sol",
  "abi": [
    {
      "inputs": [],
      "stateMutability": "nonpayable",
      "type": "constructor"
    },
    {
      "anonymous": false,
      "inputs": [
        {
          "indexed": true,
          "internalType": "string",
          "name": "id",
          "type": "string"
        },
        {
          "indexed": false,
          "internalType": "string",
          "name": "farmVi",
          "type": "string"
        },
        {
          "indexed": false,
          "internalType": "enum DurianTrust.RiskLevel",
          "name": "riskLevel",
          "type": "uint8"
        },
        {
          "indexed": true,
          "internalType": "uint256",
          "name": "tokenId",
          "type": "uint256"
        }
      ],
      "name": "BatchRegistered",
      "type": "event"
    },
    {
      "anonymous": false,
      "inputs": [
        {
          "indexed": true,
          "internalType": "string",
          "name": "id",
          "type": "string"
        },
        {
          "indexed": false,
          "internalType": "string",
          "name": "stageVi",
          "type": "string"
        }
      ],
      "name": "TimelineEventAdded",
      "type": "event"
    },
    {
      "inputs": [],
      "name": "PPM_SCALE",
      "outputs": [
        {
          "internalType": "uint256",
          "name": "",
          "type": "uint256"
        }
      ],
      "stateMutability": "view",
      "type": "function"
    },
    {
      "inputs": [
        {
          "internalType": "string",
          "name": "id",
          "type": "string"
        },
        {
          "internalType": "string",
          "name": "stageVi",
          "type": "string"
        },
        {
          "internalType": "string",
          "name": "stageEn",
          "type": "string"
        },
        {
          "internalType": "string",
          "name": "locationVi",
          "type": "string"
        },
        {
          "internalType": "string",
          "name": "locationEn",
          "type": "string"
        },
        {
          "internalType": "string",
          "name": "date",
          "type": "string"
        },
        {
          "internalType": "uint8",
          "name": "status",
          "type": "uint8"
        }
      ],
      "name": "addTimelineEvent",
      "outputs": [],
      "stateMutability": "nonpayable",
      "type": "function"
    },
    {
      "inputs": [
        {
          "internalType": "string",
          "name": "id",
          "type": "string"
        }
      ],
      "name": "getBatch",
      "outputs": [
        {
          "internalType": "string",
          "name": "farmVi",
          "type": "string"
        },
        {
          "internalType": "string",
          "name": "farmEn",
          "type": "string"
        },
        {
          "internalType": "string",
          "name": "provinceVi",
          "type": "string"
        },
        {
          "internalType": "string",
          "name": "provinceEn",
          "type": "string"
        },
        {
          "internalType": "string",
          "name": "harvestDate",
          "type": "string"
        },
        {
          "internalType": "uint256",
          "name": "cadmiumPpm",
          "type": "uint256"
        },
        {
          "internalType": "uint256",
          "name": "thresholdPpm",
          "type": "uint256"
        },
        {
          "internalType": "string",
          "name": "aiResultVi",
          "type": "string"
        },
        {
          "internalType": "string",
          "name": "aiResultEn",
          "type": "string"
        },
        {
          "internalType": "uint256",
          "name": "confidence",
          "type": "uint256"
        },
        {
          "internalType": "enum DurianTrust.RiskLevel",
          "name": "riskLevel",
          "type": "uint8"
        },
        {
          "internalType": "string",
          "name": "riskCauseVi",
          "type": "string"
        },
        {
          "internalType": "string",
          "name": "riskCauseEn",
          "type": "string"
        }
      ],
      "stateMutability": "view",
      "type": "function"
    },
    {
      "inputs": [
        {
          "internalType": "uint256",
          "name": "tokenId",
          "type": "uint256"
        }
      ],
      "name": "getBatchIdByTokenId",
      "outputs": [
        {
          "internalType": "string",
          "name": "",
          "type": "string"
        }
      ],
      "stateMutability": "view",
      "type": "function"
    },
    {
      "inputs": [],
      "name": "getBatchIds",
      "outputs": [
        {
          "internalType": "string[]",
          "name": "",
          "type": "string[]"
        }
      ],
      "stateMutability": "view",
      "type": "function"
    },
    {
      "inputs": [
        {
          "internalType": "uint256",
          "name": "tokenId",
          "type": "uint256"
        }
      ],
      "name": "getRegistrant",
      "outputs": [
        {
          "internalType": "address",
          "name": "",
          "type": "address"
        }
      ],
      "stateMutability": "view",
      "type": "function"
    },
    {
      "inputs": [
        {
          "internalType": "string",
          "name": "id",
          "type": "string"
        }
      ],
      "name": "getTimeline",
      "outputs": [
        {
          "components": [
            {
              "internalType": "string",
              "name": "stageVi",
              "type": "string"
            },
            {
              "internalType": "string",
              "name": "stageEn",
              "type": "string"
            },
            {
              "internalType": "string",
              "name": "locationVi",
              "type": "string"
            },
            {
              "internalType": "string",
              "name": "locationEn",
              "type": "string"
            },
            {
              "internalType": "string",
              "name": "date",
              "type": "string"
            },
            {
              "internalType": "uint8",
              "name": "status",
              "type": "uint8"
            }
          ],
          "internalType": "struct DurianTrust.TimelineEvent[]",
          "name": "",
          "type": "tuple[]"
        }
      ],
      "stateMutability": "view",
      "type": "function"
    },
    {
      "inputs": [
        {
          "internalType": "string",
          "name": "batchId",
          "type": "string"
        }
      ],
      "name": "getTokenIdByBatchId",
      "outputs": [
        {
          "internalType": "uint256",
          "name": "",
          "type": "uint256"
        }
      ],
      "stateMutability": "view",
      "type": "function"
    },
    {
      "inputs": [],
      "name": "owner",
      "outputs": [
        {
          "internalType": "address",
          "name": "",
          "type": "address"
        }
      ],
      "stateMutability": "view",
      "type": "function"
    },
    {
      "inputs": [
        {
          "internalType": "string",
          "name": "id",
          "type": "string"
        },
        {
          "internalType": "string",
          "name": "farmVi",
          "type": "string"
        },
        {
          "internalType": "string",
          "name": "farmEn",
          "type": "string"
        },
        {
          "internalType": "string",
          "name": "provinceVi",
          "type": "string"
        },
        {
          "internalType": "string",
          "name": "provinceEn",
          "type": "string"
        },
        {
          "internalType": "string",
          "name": "harvestDate",
          "type": "string"
        },
        {
          "internalType": "uint256",
          "name": "cadmiumPpm",
          "type": "uint256"
        },
        {
          "internalType": "uint256",
          "name": "thresholdPpm",
          "type": "uint256"
        },
        {
          "internalType": "string",
          "name": "aiResultVi",
          "type": "string"
        },
        {
          "internalType": "string",
          "name": "aiResultEn",
          "type": "string"
        },
        {
          "internalType": "uint256",
          "name": "confidence",
          "type": "uint256"
        },
        {
          "internalType": "enum DurianTrust.RiskLevel",
          "name": "riskLevel",
          "type": "uint8"
        },
        {
          "internalType": "string",
          "name": "riskCauseVi",
          "type": "string"
        },
        {
          "internalType": "string",
          "name": "riskCauseEn",
          "type": "string"
        }
      ],
      "name": "registerBatch",
      "outputs": [],
      "stateMutability": "nonpayable",
      "type": "function"
    }
  ],
  "bytecode": "0x6080806040523461002e57612261600155600080546001600160a01b031916331790556112d190816100348239f35b600080fdfe6080604052600436101561001257600080fd5b60003560e01c80632c23b26e14610dc5578063462190b114610cdc5780635c30b61b14610ad457806364cc51ff14610ab75780637ed2253c146108a95780638da5cb5b14610880578063a08550a21461081f578063a9357452146107d1578063ba43a4451461033f5763f9ca42741461008a57600080fd5b3461033a57602036600319011261033a5760043567ffffffffffffffff811161033a5760206100c0610102923690600401610ee0565b604051906100f160ff600e8351948681818701976100df81838b610f37565b8101600281520301902001541661114e565b604051938492839251928391610f37565b8101600281520301902060ff600e6040519261011d84610ea1565b61012681611191565b845261013460018201611191565b602085015261014560028201611191565b604085015261015660038201611191565b606085015261016760048201611191565b608085015261017860058201611191565b60a0850152600681015460c0850152600781015460e085015261019d60088201611191565b6101008501526101af60098201611191565b610120850152600a8101546101408501526101d483600b830154166101608601610fd8565b6101e0600c8201611191565b6101808501526101f2600d8201611191565b6101a085015201541615156101c08201526020810151604082015191606081015190608081015160a08201519060c083015160e08401519061010085015190610120860151926101408701519561016088015195600387101561032457610180890151986101a00151996040519c8d9c8d6101a081526101a00161027591610f5a565b8d810360208f015261028691610f5a565b8c810360408e015261029791610f5a565b8b810360608d01526102a891610f5a565b8a810360808c01526102b991610f5a565b9160a08a015260c089015287810360e08901526102d591610f5a565b8681036101008801526102e791610f5a565b9161012086015261014085016102fc91610f7f565b83810361016085015261030e91610f5a565b82810361018084015261032091610f5a565b0390f35b634e487b7160e01b600052602160045260246000fd5b600080fd5b3461033a576101c036600319011261033a5767ffffffffffffffff60043581811161033a57610372903690600401610ee0565b9060243581811161033a5761038b903690600401610ee0565b9060443581811161033a576103a4903690600401610ee0565b9060643581811161033a576103bd903690600401610ee0565b9060843581811161033a576103d6903690600401610ee0565b60a43582811161033a576103ee903690600401610ee0565b6101043583811161033a57610407903690600401610ee0565b906101243584811161033a57610421903690600401610ee0565b92600361016435101561033a576101843585811161033a57610447903690600401610ee0565b946101a43590811161033a57610461903690600401610ee0565b9561047760018060a01b03600054163314610f8c565b60ff600e61049460208d8160405193828580945193849201610f37565b8101600281520301902001541661079557604051976104b289610ea1565b8a89528960208a015260408901526060880152608087015260a086015260c43560c086015260e43560e086015261010085015261012084015261014435610140840152610506610164356101608501610fd8565b6101808301526101a082015260016101c0820152604051602081855161052f8183858a01610f37565b8101600281520301902061054482518261101e565b61055560208301516001830161101e565b61056660408301516002830161101e565b61057760608301516003830161101e565b61058860808301516004830161101e565b61059960a08301516005830161101e565b60c0820151600682015560e082015160078201556105bf6101008301516008830161101e565b6105d16101208301516009830161101e565b610140820151600a820155600b810161016083015191600383101561032457600e6101c09160ff9384199585878354169116179055610618610180870151600c830161101e565b61062a6101a0870151600d830161101e565b0193015115159183541691161790556001549182600052600560205261065481604060002061101e565b82604051602081845161066a8183858901610f37565b81016006815203019020558260005260076020526040600020336bffffffffffffffffffffffff60a01b825416179055600154600019811461077f5760010160015560045490600160401b821015610769576001820180600455821015610753576107298161072461073e937f472b6f7acd103a560dca6edf16cf1604a8e7fae4c9483c8f4f13f74405ca002c9560046000527f8a35acfbc15ff81a39ae7d344fd709f28e8600b4aa8c65c6b64bfe7fe36bd19b0161101e565b61112e565b92604051918291604083526040830190610f5a565b61074e6020830161016435610f7f565b0390a3005b634e487b7160e01b600052603260045260246000fd5b634e487b7160e01b600052604160045260246000fd5b634e487b7160e01b600052601160045260246000fd5b60405162461bcd60e51b8152602060048201526014602482015273426174636820616c72656164792065786973747360601b6044820152606490fd5b3461033a57602036600319011261033a576020600435806000526007825260018060a01b03906108098260406000205416151561124f565b6000526007825260406000205416604051908152f35b3461033a57602036600319011261033a5760043580600052600560205261085461084d604060002054610fe4565b151561124f565b600052600560205261032061086c6040600020611191565b604051918291602083526020830190610f5a565b3461033a57600036600319011261033a576000546040516001600160a01b039091168152602090f35b3461033a5760208060031936011261033a5760043567ffffffffffffffff811161033a576108db903690600401610ee0565b9060405191805191808201926108f2818686610f37565b840191610913600293848152600e878560ff998a940301902001541661114e565b61092560405194859251928391610f37565b8301928181600395868152030190209182549061094182611237565b9461094f6040519687610ebe565b82865283860191829560005284600020916000935b858510610a3a57505050505050604051928184019082855251809152604084019160408260051b86010193926000965b8388106109a15786860387f35b90919293948380600192603f198a8203018652885190610a1d610a0a6109f76109e56109d5865160c0808852870190610f5a565b8787015186820389880152610f5a565b60408601518582036040870152610f5a565b6060808601519085830390860152610f5a565b6080808501519084830390850152610f5a565b918660a08092015116910152970193019701969093929193610994565b60068760019260409b999b51610a4f81610e85565b610a5888611191565b8152610a65858901611191565b83820152610a74878901611191565b6040820152610a84868901611191565b6060820152610a9560048901611191565b60808201528d60058901541660a0820152815201940194019392979597610964565b3461033a57600036600319011261033a5760206040516127108152f35b3461033a5760e036600319011261033a5767ffffffffffffffff60043581811161033a57610b06903690600401610ee0565b9060243581811161033a57610b1f903690600401610ee0565b60443582811161033a57610b37903690600401610ee0565b9160643581811161033a57610b50903690600401610ee0565b9360843582811161033a57610b69903690600401610ee0565b9160a43590811161033a57610b82903690600401610ee0565b60c4359060ff821680920361033a57600e96610ba960018060a01b03600054163314610f8c565b610bdd6040518551610bcc60ff60209c848e8096818d01966100df81838a610f37565b604051809381928951928391610f37565b8101600381520301902060405190610bf482610e85565b87825289820198895260408201928352606082019687526080820193845260a08201948552805493600160401b851015610769576001850180835585101561075357610ca6610cc298610c9c600596610c928f9e7f89b67f9499d4ebcce6e17c7e8fa6444cca5a12771a786407b9c287d09b2003779f60ff9b6006610c8892610cb09b60005260002091020199518a61101e565b516001890161101e565b516002870161101e565b516003850161101e565b516004830161101e565b0191511660ff1982541617905561112e565b92610cd7604051928284938452830190610f5a565b0390a2005b3461033a57600036600319011261033a57600454610cf981611237565b90610d076040519283610ebe565b808252602090818301908160046000527f8a35acfbc15ff81a39ae7d344fd709f28e8600b4aa8c65c6b64bfe7fe36bd19b6000915b838310610da35750505050604051918083019381845251809452604083019360408160051b85010192916000955b828710610d775785850386f35b909192938280610d93600193603f198a82030186528851610f5a565b9601920196019592919092610d6a565b6001868192610db4859a999a611191565b815201920192019190959495610d3c565b3461033a5760208060031936011261033a5760043567ffffffffffffffff811161033a57610df7903690600401610ee0565b60405190805191838181840194610e0f818388610f37565b810160068152030190205415610e4957610e36918391604051938492839251928391610f37565b8101600681520301902054604051908152f35b60405162461bcd60e51b815260048101849052601460248201527310985d18da081b9bdd081c9959da5cdd195c995960621b6044820152606490fd5b60c0810190811067ffffffffffffffff82111761076957604052565b6101e0810190811067ffffffffffffffff82111761076957604052565b90601f8019910116810190811067ffffffffffffffff82111761076957604052565b81601f8201121561033a5780359067ffffffffffffffff82116107695760405192610f15601f8401601f191660200185610ebe565b8284526020838301011161033a57816000926020809301838601378301015290565b60005b838110610f4a5750506000910152565b8181015183820152602001610f3a565b90602091610f7381518092818552858086019101610f37565b601f01601f1916010190565b9060038210156103245752565b15610f9357565b60405162461bcd60e51b815260206004820152601860248201527f4f6e6c79206f776e65722063616e2063616c6c207468697300000000000000006044820152606490fd5b60038210156103245752565b90600182811c92168015611014575b6020831014610ffe57565b634e487b7160e01b600052602260045260246000fd5b91607f1691610ff3565b919091825167ffffffffffffffff81116107695761103c8254610fe4565b601f81116110e6575b50602080601f8311600114611082575081929394600092611077575b50508160011b916000199060031b1c1916179055565b015190503880611061565b90601f198316958460005282600020926000905b8882106110ce575050836001959697106110b5575b505050811b019055565b015160001960f88460031b161c191690553880806110ab565b80600185968294968601518155019501930190611096565b600083815260208120601f840160051c81019260208510611124575b601f0160051c01915b828110611119575050611045565b81815560010161110b565b9092508290611102565b61114690602060405192828480945193849201610f37565b810103902090565b1561115557565b60405162461bcd60e51b815260206004820152601460248201527310985d18da08191bd95cc81b9bdd08195e1a5cdd60621b6044820152606490fd5b90604051918260008254926111a584610fe4565b90818452600194858116908160001461121457506001146111d1575b50506111cf92500383610ebe565b565b9093915060005260209081600020936000915b8183106111fc5750506111cf935082010138806111c1565b855488840185015294850194879450918301916111e4565b9150506111cf94506020925060ff191682840152151560051b82010138806111c1565b67ffffffffffffffff81116107695760051b60200190565b1561125657565b60405162461bcd60e51b815260206004820152601760248201527f546f6b656e204944206e6f7420726567697374657265640000000000000000006044820152606490fdfea2646970667358221220c20be37771dda6d31dd81f86f645c355ded56684e9ca66a7622e75a54e84701964736f6c63430008140033",
  "linkReferences": {},
  "deployedLinkReferences": {}
}